{
  "contractName": "Flowtys",
  "abi": [
    {
      "inputs": [
        {
          "internalType": "string",
          "name": "baseURI",
          "type": "string"
        }
      ],
      "stateMutability": "nonpayable",
      "type": "constructor"
    },
    {
      "anonymous": false,
      "inputs": [
        {
          "indexed": true,
          "internalType": "address",
          "name": "owner",
          "type": "address"
        },
        {
          "indexed": true,
          "internalType": "address",
          "name": "approved",
          "type": "address"
        },
        {
          "indexed": true,
          "internalType": "uint256",
          "name": "tokenId",
          "type": "uint256"
        }
      ],
      "name": "Approval",
      "type": "event"
    },
    {
      "anonymous": false,
      "inputs": [
        {
          "indexed": true,
          "internalType": "address",
          "name": "owner",
          "type": "address"
        },
        {
          "indexed": true,
          "internalType": "address",
          "name": "operator",
          "type": "address"
        },
        {
          "indexed": false,
          "internalType": "bool",
          "name": "approved",
          "type": "bool"
        }
      ],
      "name": "ApprovalForAll",
      "type": "event"
    },
    {
      "anonymous": false,
      "inputs": [
        {
          "indexed": false,
          "internalType": "uint256",
          "name": "tokenId",
          "type": "uint256"
        }
      ],
      "name": "FLowtyMinted",
      "type": "event"
    },
    {
      "anonymous": false,
      "inputs": [
        {
          "indexed": true,
          "internalType": "address",
          "name": "previousOwner",
          "type": "address"
        },
        {
          "indexed": true,
          "internalType": "address",
          "name": "newOwner",
          "type": "address"
        }
      ],
      "name": "OwnershipTransferred",
      "type": "event"
    },
    {
      "anonymous": false,
      "inputs": [
        {
          "indexed": true,
          "internalType": "address",
          "name": "from",
          "type": "address"
        },
        {
          "indexed": true,
          "internalType": "address",
          "name": "to",
          "type": "address"
        },
        {
          "indexed": true,
          "internalType": "uint256",
          "name": "tokenId",
          "type": "uint256"
        }
      ],
      "name": "Transfer",
      "type": "event"
    },
    {
      "inputs": [],
      "name": "MAX_FLOWTYS",
      "outputs": [
        {
          "internalType": "uint256",
          "name": "",
          "type": "uint256"
        }
      ],
      "stateMutability": "view",
      "type": "function"
    },
    {
      "inputs": [],
      "name": "_baseFlowtyURI",
      "outputs": [
        {
          "internalType": "string",
          "name": "",
          "type": "string"
        }
      ],
      "stateMutability": "view",
      "type": "function"
    },
    {
      "inputs": [],
      "name": "ageBlocksThreshold",
      "outputs": [
        {
          "internalType": "uint256",
          "name": "",
          "type": "uint256"
        }
      ],
      "stateMutability": "view",
      "type": "function"
    },
    {
      "inputs": [
        {
          "internalType": "address",
          "name": "to",
          "type": "address"
        },
        {
          "internalType": "uint256",
          "name": "tokenId",
          "type": "uint256"
        }
      ],
      "name": "approve",
      "outputs": [],
      "stateMutability": "nonpayable",
      "type": "function"
    },
    {
      "inputs": [
        {
          "internalType": "address",
          "name": "owner",
          "type": "address"
        }
      ],
      "name": "balanceOf",
      "outputs": [
        {
          "internalType": "uint256",
          "name": "",
          "type": "uint256"
        }
      ],
      "stateMutability": "view",
      "type": "function"
    },
    {
      "inputs": [],
      "name": "flowtyPrice",
      "outputs": [
        {
          "internalType": "uint256",
          "name": "",
          "type": "uint256"
        }
      ],
      "stateMutability": "view",
      "type": "function"
    },
    {
      "inputs": [
        {
          "internalType": "uint256",
          "name": "tokenId",
          "type": "uint256"
        }
      ],
      "name": "getApproved",
      "outputs": [
        {
          "internalType": "address",
          "name": "",
          "type": "address"
        }
      ],
      "stateMutability": "view",
      "type": "function"
    },
    {
      "inputs": [
        {
          "internalType": "address",
          "name": "owner",
          "type": "address"
        },
        {
          "internalType": "address",
          "name": "operator",
          "type": "address"
        }
      ],
      "name": "isApprovedForAll",
      "outputs": [
        {
          "internalType": "bool",
          "name": "",
          "type": "bool"
        }
      ],
      "stateMutability": "view",
      "type": "function"
    },
    {
      "inputs": [],
      "name": "maxFlowtysPurchase",
      "outputs": [
        {
          "internalType": "uint256",
          "name": "",
          "type": "uint256"
        }
      ],
      "stateMutability": "view",
      "type": "function"
    },
    {
      "inputs": [],
      "name": "name",
      "outputs": [
        {
          "internalType": "string",
          "name": "",
          "type": "string"
        }
      ],
      "stateMutability": "view",
      "type": "function"
    },
    {
      "inputs": [],
      "name": "owner",
      "outputs": [
        {
          "internalType": "address",
          "name": "",
          "type": "address"
        }
      ],
      "stateMutability": "view",
      "type": "function"
    },
    {
      "inputs": [
        {
          "internalType": "uint256",
          "name": "tokenId",
          "type": "uint256"
        }
      ],
      "name": "ownerOf",
      "outputs": [
        {
          "internalType": "address",
          "name": "",
          "type": "address"
        }
      ],
      "stateMutability": "view",
      "type": "function"
    },
    {
      "inputs": [],
      "name": "provenance",
      "outputs": [
        {
          "internalType": "string",
          "name": "",
          "type": "string"
        }
      ],
      "stateMutability": "view",
      "type": "function"
    },
    {
      "inputs": [],
      "name": "renounceOwnership",
      "outputs": [],
      "stateMutability": "nonpayable",
      "type": "function"
    },
    {
      "inputs": [],
      "name": "saleIsActive",
      "outputs": [
        {
          "internalType": "bool",
          "name": "",
          "type": "bool"
        }
      ],
      "stateMutability": "view",
      "type": "function"
    },
    {
      "inputs": [
        {
          "internalType": "address",
          "name": "operator",
          "type": "address"
        },
        {
          "internalType": "bool",
          "name": "approved",
          "type": "bool"
        }
      ],
      "name": "setApprovalForAll",
      "outputs": [],
      "stateMutability": "nonpayable",
      "type": "function"
    },
    {
      "inputs": [],
      "name": "symbol",
      "outputs": [
        {
          "internalType": "string",
          "name": "",
          "type": "string"
        }
      ],
      "stateMutability": "view",
      "type": "function"
    },
    {
      "inputs": [
        {
          "internalType": "uint256",
          "name": "index",
          "type": "uint256"
        }
      ],
      "name": "tokenByIndex",
      "outputs": [
        {
          "internalType": "uint256",
          "name": "",
          "type": "uint256"
        }
      ],
      "stateMutability": "view",
      "type": "function"
    },
    {
      "inputs": [
        {
          "internalType": "address",
          "name": "owner",
          "type": "address"
        },
        {
          "internalType": "uint256",
          "name": "index",
          "type": "uint256"
        }
      ],
      "name": "tokenOfOwnerByIndex",
      "outputs": [
        {
          "internalType": "uint256",
          "name": "",
          "type": "uint256"
        }
      ],
      "stateMutability": "view",
      "type": "function"
    },
    {
      "inputs": [],
      "name": "totalSupply",
      "outputs": [
        {
          "internalType": "uint256",
          "name": "",
          "type": "uint256"
        }
      ],
      "stateMutability": "view",
      "type": "function"
    },
    {
      "inputs": [
        {
          "internalType": "address",
          "name": "newOwner",
          "type": "address"
        }
      ],
      "name": "transferOwnership",
      "outputs": [],
      "stateMutability": "nonpayable",
      "type": "function"
    },
    {
      "inputs": [
        {
          "internalType": "uint256",
          "name": "reservedAmount",
          "type": "uint256"
        }
      ],
      "name": "reserveFlowtys",
      "outputs": [],
      "stateMutability": "nonpayable",
      "type": "function"
    },
    {
      "inputs": [],
      "name": "withdraw",
      "outputs": [],
      "stateMutability": "nonpayable",
      "type": "function"
    },
    {
      "inputs": [
        {
          "internalType": "uint256",
          "name": "amount",
          "type": "uint256"
        },
        {
          "internalType": "address payable",
          "name": "to",
          "type": "address"
        }
      ],
      "name": "withdrawForGiveaway",
      "outputs": [],
      "stateMutability": "nonpayable",
      "type": "function"
    },
    {
      "inputs": [
        {
          "internalType": "uint256",
          "name": "tokenId",
          "type": "uint256"
        }
      ],
      "name": "getAge",
      "outputs": [
        {
          "internalType": "enum Flowtys.Age",
          "name": "",
          "type": "uint8"
        }
      ],
      "stateMutability": "view",
      "type": "function"
    },
    {
      "inputs": [
        {
          "internalType": "uint256",
          "name": "tokenId",
          "type": "uint256"
        }
      ],
      "name": "getAgeStaringBlock",
      "outputs": [
        {
          "internalType": "uint256",
          "name": "",
          "type": "uint256"
        }
      ],
      "stateMutability": "view",
      "type": "function"
    },
    {
      "inputs": [
        {
          "internalType": "string",
          "name": "newuri",
          "type": "string"
        }
      ],
      "name": "setBaseURI",
      "outputs": [],
      "stateMutability": "nonpayable",
      "type": "function"
    },
    {
      "inputs": [
        {
          "internalType": "uint256",
          "name": "newMax",
          "type": "uint256"
        }
      ],
      "name": "setMaxFlowtysPurchase",
      "outputs": [],
      "stateMutability": "nonpayable",
      "type": "function"
    },
    {
      "inputs": [
        {
          "internalType": "uint256",
          "name": "newCost",
          "type": "uint256"
        }
      ],
      "name": "setMintCost",
      "outputs": [],
      "stateMutability": "nonpayable",
      "type": "function"
    },
    {
      "inputs": [],
      "name": "flipSaleState",
      "outputs": [],
      "stateMutability": "nonpayable",
      "type": "function"
    },
    {
      "inputs": [
        {
          "internalType": "uint256",
          "name": "numberOfTokens",
          "type": "uint256"
        }
      ],
      "name": "mintFlowty",
      "outputs": [],
      "stateMutability": "payable",
      "type": "function"
    },
    {
      "inputs": [
        {
          "internalType": "string",
          "name": "provenanceHash",
          "type": "string"
        }
      ],
      "name": "setProvenanceHash",
      "outputs": [],
      "stateMutability": "nonpayable",
      "type": "function"
    },
    {
      "inputs": [
        {
          "internalType": "address",
          "name": "from",
          "type": "address"
        },
        {
          "internalType": "address",
          "name": "to",
          "type": "address"
        },
        {
          "internalType": "uint256",
          "name": "tokenId",
          "type": "uint256"
        }
      ],
      "name": "transferFrom",
      "outputs": [],
      "stateMutability": "nonpayable",
      "type": "function"
    },
    {
      "inputs": [
        {
          "internalType": "address",
          "name": "from",
          "type": "address"
        },
        {
          "internalType": "address",
          "name": "to",
          "type": "address"
        },
        {
          "internalType": "uint256",
          "name": "tokenId",
          "type": "uint256"
        }
      ],
      "name": "safeTransferFrom",
      "outputs": [],
      "stateMutability": "nonpayable",
      "type": "function"
    },
    {
      "inputs": [
        {
          "internalType": "address",
          "name": "from",
          "type": "address"
        },
        {
          "internalType": "address",
          "name": "to",
          "type": "address"
        },
        {
          "internalType": "uint256",
          "name": "tokenId",
          "type": "uint256"
        },
        {
          "internalType": "bytes",
          "name": "_data",
          "type": "bytes"
        }
      ],
      "name": "safeTransferFrom",
      "outputs": [],
      "stateMutability": "nonpayable",
      "type": "function"
    },
    {
      "inputs": [
        {
          "internalType": "uint256",
          "name": "tokenId",
          "type": "uint256"
        }
      ],
      "name": "tokenURI",
      "outputs": [
        {
          "internalType": "string",
          "name": "",
          "type": "string"
        }
      ],
      "stateMutability": "view",
      "type": "function"
    },
    {
      "inputs": [
        {
          "internalType": "bytes4",
          "name": "interfaceId",
          "type": "bytes4"
        }
      ],
      "name": "supportsInterface",
      "outputs": [
        {
          "internalType": "bool",
          "name": "",
          "type": "bool"
        }
      ],
      "stateMutability": "view",
      "type": "function"
    }
  ],
  "bytecode": "0x60806040526010600c5567011c37937e080000600d55600e805460ff191690553480156200002c57600080fd5b5060405162002bd838038062002bd88339810160408190526200004f9162000215565b604080518082018252600781527f466c6f777479730000000000000000000000000000000000000000000000000060208083019182528351808501909452600684527f464c4f5754590000000000000000000000000000000000000000000000000000908401528151919291620000c9916000916200016f565b508051620000df9060019060208401906200016f565b505050620000fc620000f66200011960201b60201c565b6200011d565b80516200011190600f9060208401906200016f565b505062000376565b3390565b600a80546001600160a01b038381166001600160a01b0319831681179093556040519116919082907f8be0079c531659141344cd1fd0a4f28419497f9722a3daafe3b4186f6b6457e090600090a35050565b8280546200017d90620002f1565b90600052602060002090601f016020900481019282620001a15760008555620001ec565b82601f10620001bc57805160ff1916838001178555620001ec565b82800160010185558215620001ec579182015b82811115620001ec578251825591602001919060010190620001cf565b50620001fa929150620001fe565b5090565b5b80821115620001fa5760008155600101620001ff565b600060208083850312156200022957600080fd5b82516001600160401b03808211156200024157600080fd5b818501915085601f8301126200025657600080fd5b8151818111156200026b576200026b62000347565b604051601f8201601f19908116603f0116810190838211818310171562000296576200029662000347565b816040528281528886848701011115620002af57600080fd5b600093505b82841015620002d35784840186015181850187015292850192620002b4565b82841115620002e55760008684830101525b98975050505050505050565b600181811c908216806200030657607f821691505b6020821081141562000341577f4e487b7100000000000000000000000000000000000000000000000000000000600052602260045260246000fd5b50919050565b7f4e487b7100000000000000000000000000000000000000000000000000000000600052604160045260246000fd5b61285280620003866000396000f3fe60806040526004361061021a5760003560e01c80635d6aefc611610123578063996bae64116100ab578063c87b56dd1161006f578063c87b56dd146105ee578063e985e9c51461060e578063ead0680114610657578063eb8d24441461066d578063f2fde38b1461068757600080fd5b8063996bae641461056f578063a22cb46514610582578063a68ad32d146105a2578063ac4bc197146105b8578063b88d4fde146105ce57600080fd5b8063715018a6116100f2578063715018a6146104e75780638545f4ea146104fc5780638b1e599a1461051c5780638da5cb5b1461053c57806395d89b411461055a57600080fd5b80635d6aefc6146104725780636352211e14610492578063694d0e0b146104b257806370a08231146104c757600080fd5b806323b872dd116101a657806342842e0e1161017557806342842e0e146103d25780634d7313a4146103f25780634f6ccce71461041257806355d7d44a1461043257806355f804b31461045257600080fd5b806323b872dd146103685780632f745c591461038857806334918dfd146103a85780633ccfd60b146103bd57600080fd5b80630e37008a116101ed5780630e37008a146102d05780630f7309e8146102fd578063109695231461031257806318160ddd146103325780631eeed7cc1461035157600080fd5b806301ffc9a71461021f57806306fdde0314610254578063081812fc14610276578063095ea7b3146102ae575b600080fd5b34801561022b57600080fd5b5061023f61023a3660046123a2565b6106a7565b60405190151581526020015b60405180910390f35b34801561026057600080fd5b506102696106b8565b60405161024b9190612548565b34801561028257600080fd5b50610296610291366004612425565b61074a565b6040516001600160a01b03909116815260200161024b565b3480156102ba57600080fd5b506102ce6102c9366004612376565b6107d7565b005b3480156102dc57600080fd5b506102f06102eb366004612425565b6108ed565b60405161024b9190612520565b34801561030957600080fd5b50610269610961565b34801561031e57600080fd5b506102ce61032d3660046123dc565b6109ef565b34801561033e57600080fd5b506008545b60405190815260200161024b565b34801561035d57600080fd5b506103436207e90081565b34801561037457600080fd5b506102ce610383366004612282565b610a30565b34801561039457600080fd5b506103436103a3366004612376565b610a44565b3480156103b457600080fd5b506102ce610ada565b3480156103c957600080fd5b506102ce610b18565b3480156103de57600080fd5b506102ce6103ed366004612282565b610b96565b3480156103fe57600080fd5b506102ce61040d36600461243e565b610bb1565b34801561041e57600080fd5b5061034361042d366004612425565b610c2a565b34801561043e57600080fd5b506102ce61044d366004612425565b610cbd565b34801561045e57600080fd5b506102ce61046d3660046123dc565b610cec565b34801561047e57600080fd5b5061034361048d366004612425565b610d29565b34801561049e57600080fd5b506102966104ad366004612425565b610d63565b3480156104be57600080fd5b50610269610dda565b3480156104d357600080fd5b506103436104e236600461222c565b610de7565b3480156104f357600080fd5b506102ce610e6e565b34801561050857600080fd5b506102ce610517366004612425565b610ea4565b34801561052857600080fd5b506102ce610537366004612425565b610f31565b34801561054857600080fd5b50600a546001600160a01b0316610296565b34801561056657600080fd5b50610269610f80565b6102ce61057d366004612425565b610f8f565b34801561058e57600080fd5b506102ce61059d366004612343565b611164565b3480156105ae57600080fd5b50610343600c5481565b3480156105c457600080fd5b5061034361271081565b3480156105da57600080fd5b506102ce6105e93660046122c3565b611229565b3480156105fa57600080fd5b50610269610609366004612425565b611244565b34801561061a57600080fd5b5061023f610629366004612249565b6001600160a01b03918216600090815260056020908152604080832093909416825291909152205460ff1690565b34801561066357600080fd5b50610343600d5481565b34801561067957600080fd5b50600e5461023f9060ff1681565b34801561069357600080fd5b506102ce6106a236600461222c565b6112da565b60006106b282611372565b92915050565b6060600080546106c790612703565b80601f01602080910402602001604051908101604052809291908181526020018280546106f390612703565b80156107405780601f1061071557610100808354040283529160200191610740565b820191906000526020600020905b81548152906001019060200180831161072357829003601f168201915b5050505050905090565b600061075582611397565b6107bb5760405162461bcd60e51b815260206004820152602c60248201527f4552433732313a20617070726f76656420717565727920666f72206e6f6e657860448201526b34b9ba32b73a103a37b5b2b760a11b60648201526084015b60405180910390fd5b506000908152600460205260409020546001600160a01b031690565b60006107e282610d63565b9050806001600160a01b0316836001600160a01b031614156108505760405162461bcd60e51b815260206004820152602160248201527f4552433732313a20617070726f76616c20746f2063757272656e74206f776e656044820152603960f91b60648201526084016107b2565b336001600160a01b038216148061086c575061086c8133610629565b6108de5760405162461bcd60e51b815260206004820152603860248201527f4552433732313a20617070726f76652063616c6c6572206973206e6f74206f7760448201527f6e6572206e6f7220617070726f76656420666f7220616c6c000000000000000060648201526084016107b2565b6108e883836113b4565b505050565b60006108f882611397565b6109145760405162461bcd60e51b81526004016107b2906125ad565b6000828152601160205260408120546207e9009061093290436126c0565b61093c919061268d565b9050610949816003611422565b600381111561095a5761095a612799565b9392505050565b6010805461096e90612703565b80601f016020809104026020016040519081016040528092919081815260200182805461099a90612703565b80156109e75780601f106109bc576101008083540402835291602001916109e7565b820191906000526020600020905b8154815290600101906020018083116109ca57829003601f168201915b505050505081565b600a546001600160a01b03163314610a195760405162461bcd60e51b81526004016107b2906125ef565b8051610a2c90601090602084019061211d565b5050565b610a3b838383611438565b6108e881611469565b6000610a4f83610de7565b8210610ab15760405162461bcd60e51b815260206004820152602b60248201527f455243373231456e756d657261626c653a206f776e657220696e646578206f7560448201526a74206f6620626f756e647360a81b60648201526084016107b2565b506001600160a01b03919091166000908152600660209081526040808320938352929052205490565b600a546001600160a01b03163314610b045760405162461bcd60e51b81526004016107b2906125ef565b600e805460ff19811660ff90911615179055565b600a546001600160a01b03163314610b425760405162461bcd60e51b81526004016107b2906125ef565b3031610b875760405162461bcd60e51b8152602060048201526014602482015273496e73756666696369656e742062616c616e636560601b60448201526064016107b2565b3031610b93338261154d565b50565b6108e883838360405180602001604052806000815250611229565b600a546001600160a01b03163314610bdb5760405162461bcd60e51b81526004016107b2906125ef565b3031610c205760405162461bcd60e51b8152602060048201526014602482015273496e73756666696369656e742062616c616e636560601b60448201526064016107b2565b610a2c818361154d565b6000610c3560085490565b8210610c985760405162461bcd60e51b815260206004820152602c60248201527f455243373231456e756d657261626c653a20676c6f62616c20696e646578206f60448201526b7574206f6620626f756e647360a01b60648201526084016107b2565b60088281548110610cab57610cab6127c5565b90600052602060002001549050919050565b600a546001600160a01b03163314610ce75760405162461bcd60e51b81526004016107b2906125ef565b600c55565b600a546001600160a01b03163314610d165760405162461bcd60e51b81526004016107b2906125ef565b8051610a2c90600f90602084019061211d565b6000610d3482611397565b610d505760405162461bcd60e51b81526004016107b2906125ad565b5060009081526011602052604090205490565b6000818152600260205260408120546001600160a01b0316806106b25760405162461bcd60e51b815260206004820152602960248201527f4552433732313a206f776e657220717565727920666f72206e6f6e657869737460448201526832b73a103a37b5b2b760b91b60648201526084016107b2565b600f805461096e90612703565b60006001600160a01b038216610e525760405162461bcd60e51b815260206004820152602a60248201527f4552433732313a2062616c616e636520717565727920666f7220746865207a65604482015269726f206164647265737360b01b60648201526084016107b2565b506001600160a01b031660009081526003602052604090205490565b600a546001600160a01b03163314610e985760405162461bcd60e51b81526004016107b2906125ef565b610ea26000611667565b565b600a546001600160a01b03163314610ece5760405162461bcd60e51b81526004016107b2906125ef565b60008111610f2c5760405162461bcd60e51b815260206004820152602560248201527f666c6f7774795072696365206d7573742062652067726561746572207468616e604482015264207a65726f60d81b60648201526084016107b2565b600d55565b600a546001600160a01b03163314610f5b5760405162461bcd60e51b81526004016107b2906125ef565b60015b818111610a2c57610f6e336116b9565b80610f788161273e565b915050610f5e565b6060600180546106c790612703565b600e5460ff16610fec5760405162461bcd60e51b815260206004820152602260248201527f53616c65206d7573742062652061637469766520746f206d696e7420466c6f77604482015261747960f01b60648201526084016107b2565b600c548111156110565760405162461bcd60e51b815260206004820152602f60248201527f23206f66206e6577204e465473206973206c696d69746564207065722073696e60448201526e33b632903a3930b739b0b1ba34b7b760891b60648201526084016107b2565b6127108161106360085490565b61106d9190612675565b11156110cf5760405162461bcd60e51b815260206004820152602b60248201527f507572636861736520776f756c6420657863656564206d617820737570706c7960448201526a206f6620466c6f7774797360a81b60648201526084016107b2565b3481600d546110de91906126a1565b111561112c5760405162461bcd60e51b815260206004820152601f60248201527f45746865722076616c75652073656e74206973206e6f7420636f72726563740060448201526064016107b2565b60005b81811015610a2c5761271061114360085490565b101561115257611152336116b9565b8061115c8161273e565b91505061112f565b6001600160a01b0382163314156111bd5760405162461bcd60e51b815260206004820152601960248201527f4552433732313a20617070726f766520746f2063616c6c65720000000000000060448201526064016107b2565b3360008181526005602090815260408083206001600160a01b03871680855290835292819020805460ff191686151590811790915590519081529192917f17307eab39ab6107e8899845ad3d59bd9653f200f220920489ca2b5937696c31910160405180910390a35050565b61123584848484611737565b61123e82611469565b50505050565b6060600061125183611769565b90506000815111611271576040518060200160405280600081525061095a565b8060405160200161128291906124be565b6040516020818303038152906040526112b361129d856108ed565b60038111156112ae576112ae612799565b611808565b6040516020016112c492919061248f565b6040516020818303038152906040529392505050565b600a546001600160a01b031633146113045760405162461bcd60e51b81526004016107b2906125ef565b6001600160a01b0381166113695760405162461bcd60e51b815260206004820152602660248201527f4f776e61626c653a206e6577206f776e657220697320746865207a65726f206160448201526564647265737360d01b60648201526084016107b2565b610b9381611667565b60006001600160e01b0319821663780e9d6360e01b14806106b257506106b28261190e565b6000908152600260205260409020546001600160a01b0316151590565b600081815260046020526040902080546001600160a01b0319166001600160a01b03841690811790915581906113e982610d63565b6001600160a01b03167f8c5be1e5ebec7d5bd14f71427d1e84f3dd0314c0f7b2291e5b200ac8c7c3b92560405160405180910390a45050565b6000818310611431578161095a565b5090919050565b611442338261195e565b61145e5760405162461bcd60e51b81526004016107b290612624565b6108e8838383611a44565b6000818152601160205260408120546207e900906114886001436126c0565b61149291906126c0565b61149c919061268d565b600083815260116020526040812054919250906114b990436126c0565b90506207e9008110156114db5750506000908152601160205260409020439055565b6114e96207e90060036126a1565b8110156108e8576114fd826207e9006126a1565b6000848152601160205260409020546115169190612675565b61152090436126c0565b6000848152601160205260409020546115399190612675565b600084815260116020526040902055505050565b303181111561159e5760405162461bcd60e51b815260206004820152601d60248201527f416464726573733a20696e73756666696369656e742062616c616e636500000060448201526064016107b2565b6000826001600160a01b03168260405160006040518083038185875af1925050503d80600081146115eb576040519150601f19603f3d011682016040523d82523d6000602084013e6115f0565b606091505b50509050806108e85760405162461bcd60e51b815260206004820152603a60248201527f416464726573733a20756e61626c6520746f2073656e642076616c75652c207260448201527f6563697069656e74206d6179206861766520726576657274656400000000000060648201526084016107b2565b600a80546001600160a01b038381166001600160a01b0319831681179093556040519116919082907f8be0079c531659141344cd1fd0a4f28419497f9722a3daafe3b4186f6b6457e090600090a35050565b60006116c4600b5490565b9050612710811015610a2c576116da8282611bef565b6116e8600b80546001019055565b60008181526011602052604090819020439055517fde67a2cf8162e0601a30186b661edd01cc476d5da8452a0710a1df069e56a6429061172b9083815260200190565b60405180910390a15050565b611741338361195e565b61175d5760405162461bcd60e51b81526004016107b290612624565b61123e84848484611c09565b606061177482611397565b6117d85760405162461bcd60e51b815260206004820152602f60248201527f4552433732314d657461646174613a2055524920717565727920666f72206e6f60448201526e3732bc34b9ba32b73a103a37b5b2b760891b60648201526084016107b2565b60006117e2611c3c565b90506000815111611802576040518060200160405280600081525061095a565b806112b3845b60608161182c5750506040805180820190915260018152600360fc1b602082015290565b8160005b811561185657806118408161273e565b915061184f9050600a8361268d565b9150611830565b60008167ffffffffffffffff811115611871576118716127db565b6040519080825280601f01601f19166020018201604052801561189b576020820181803683370190505b5090505b8415611906576118b06001836126c0565b91506118bd600a86612759565b6118c8906030612675565b60f81b8183815181106118dd576118dd6127c5565b60200101906001600160f81b031916908160001a9053506118ff600a8661268d565b945061189f565b949350505050565b60006001600160e01b031982166380ac58cd60e01b148061193f57506001600160e01b03198216635b5e139f60e01b145b806106b257506301ffc9a760e01b6001600160e01b03198316146106b2565b600061196982611397565b6119ca5760405162461bcd60e51b815260206004820152602c60248201527f4552433732313a206f70657261746f7220717565727920666f72206e6f6e657860448201526b34b9ba32b73a103a37b5b2b760a11b60648201526084016107b2565b60006119d583610d63565b9050806001600160a01b0316846001600160a01b03161480611a105750836001600160a01b0316611a058461074a565b6001600160a01b0316145b8061190657506001600160a01b0380821660009081526005602090815260408083209388168352929052205460ff16611906565b826001600160a01b0316611a5782610d63565b6001600160a01b031614611abf5760405162461bcd60e51b815260206004820152602960248201527f4552433732313a207472616e73666572206f6620746f6b656e2074686174206960448201526839903737ba1037bbb760b91b60648201526084016107b2565b6001600160a01b038216611b215760405162461bcd60e51b8152602060048201526024808201527f4552433732313a207472616e7366657220746f20746865207a65726f206164646044820152637265737360e01b60648201526084016107b2565b611b2c838383611c4b565b611b376000826113b4565b6001600160a01b0383166000908152600360205260408120805460019290611b609084906126c0565b90915550506001600160a01b0382166000908152600360205260408120805460019290611b8e908490612675565b909155505060008181526002602052604080822080546001600160a01b0319166001600160a01b0386811691821790925591518493918716917fddf252ad1be2c89b69c2b068fc378daa952ba7f163c4a11628f55a4df523b3ef91a4505050565b610a2c828260405180602001604052806000815250611c56565b611c14848484611a44565b611c2084848484611c89565b61123e5760405162461bcd60e51b81526004016107b29061255b565b6060600f80546106c790612703565b6108e8838383611d96565b611c608383611e4e565b611c6d6000848484611c89565b6108e85760405162461bcd60e51b81526004016107b29061255b565b60006001600160a01b0384163b15611d8b57604051630a85bd0160e11b81526001600160a01b0385169063150b7a0290611ccd9033908990889088906004016124e3565b602060405180830381600087803b158015611ce757600080fd5b505af1925050508015611d17575060408051601f3d908101601f19168201909252611d14918101906123bf565b60015b611d71573d808015611d45576040519150601f19603f3d011682016040523d82523d6000602084013e611d4a565b606091505b508051611d695760405162461bcd60e51b81526004016107b29061255b565b805181602001fd5b6001600160e01b031916630a85bd0160e11b149050611906565b506001949350505050565b6001600160a01b038316611df157611dec81600880546000838152600960205260408120829055600182018355919091527ff3f7a9fe364faab93b216da50a3214154f22a0a2b415b23a84c8169e8b636ee30155565b611e14565b816001600160a01b0316836001600160a01b031614611e1457611e148382611f8d565b6001600160a01b038216611e2b576108e88161202a565b826001600160a01b0316826001600160a01b0316146108e8576108e882826120d9565b6001600160a01b038216611ea45760405162461bcd60e51b815260206004820181905260248201527f4552433732313a206d696e7420746f20746865207a65726f206164647265737360448201526064016107b2565b611ead81611397565b15611efa5760405162461bcd60e51b815260206004820152601c60248201527f4552433732313a20746f6b656e20616c7265616479206d696e7465640000000060448201526064016107b2565b611f0660008383611c4b565b6001600160a01b0382166000908152600360205260408120805460019290611f2f908490612675565b909155505060008181526002602052604080822080546001600160a01b0319166001600160a01b03861690811790915590518392907fddf252ad1be2c89b69c2b068fc378daa952ba7f163c4a11628f55a4df523b3ef908290a45050565b60006001611f9a84610de7565b611fa491906126c0565b600083815260076020526040902054909150808214611ff7576001600160a01b03841660009081526006602090815260408083208584528252808320548484528184208190558352600790915290208190555b5060009182526007602090815260408084208490556001600160a01b039094168352600681528383209183525290812055565b60085460009061203c906001906126c0565b60008381526009602052604081205460088054939450909284908110612064576120646127c5565b906000526020600020015490508060088381548110612085576120856127c5565b60009182526020808320909101929092558281526009909152604080822084905585825281205560088054806120bd576120bd6127af565b6001900381819060005260206000200160009055905550505050565b60006120e483610de7565b6001600160a01b039093166000908152600660209081526040808320868452825280832085905593825260079052919091209190915550565b82805461212990612703565b90600052602060002090601f01602090048101928261214b5760008555612191565b82601f1061216457805160ff1916838001178555612191565b82800160010185558215612191579182015b82811115612191578251825591602001919060010190612176565b5061219d9291506121a1565b5090565b5b8082111561219d57600081556001016121a2565b600067ffffffffffffffff808411156121d1576121d16127db565b604051601f8501601f19908116603f011681019082821181831017156121f9576121f96127db565b8160405280935085815286868601111561221257600080fd5b858560208301376000602087830101525050509392505050565b60006020828403121561223e57600080fd5b813561095a816127f1565b6000806040838503121561225c57600080fd5b8235612267816127f1565b91506020830135612277816127f1565b809150509250929050565b60008060006060848603121561229757600080fd5b83356122a2816127f1565b925060208401356122b2816127f1565b929592945050506040919091013590565b600080600080608085870312156122d957600080fd5b84356122e4816127f1565b935060208501356122f4816127f1565b925060408501359150606085013567ffffffffffffffff81111561231757600080fd5b8501601f8101871361232857600080fd5b612337878235602084016121b6565b91505092959194509250565b6000806040838503121561235657600080fd5b8235612361816127f1565b91506020830135801515811461227757600080fd5b6000806040838503121561238957600080fd5b8235612394816127f1565b946020939093013593505050565b6000602082840312156123b457600080fd5b813561095a81612806565b6000602082840312156123d157600080fd5b815161095a81612806565b6000602082840312156123ee57600080fd5b813567ffffffffffffffff81111561240557600080fd5b8201601f8101841361241657600080fd5b611906848235602084016121b6565b60006020828403121561243757600080fd5b5035919050565b6000806040838503121561245157600080fd5b823591506020830135612277816127f1565b6000815180845261247b8160208601602086016126d7565b601f01601f19169290920160200192915050565b600083516124a18184602088016126d7565b8351908301906124b58183602088016126d7565b01949350505050565b600082516124d08184602087016126d7565b602f60f81b920191825250600101919050565b6001600160a01b038581168252841660208201526040810183905260806060820181905260009061251690830184612463565b9695505050505050565b602081016004831061254257634e487b7160e01b600052602160045260246000fd5b91905290565b60208152600061095a6020830184612463565b60208082526032908201527f4552433732313a207472616e7366657220746f206e6f6e20455243373231526560408201527131b2b4bb32b91034b6b83632b6b2b73a32b960711b606082015260800190565b60208082526022908201527f67657441676520717565727920666f72206e6f6e6578697374656e7420746f6b60408201526132b760f11b606082015260800190565b6020808252818101527f4f776e61626c653a2063616c6c6572206973206e6f7420746865206f776e6572604082015260600190565b60208082526031908201527f4552433732313a207472616e736665722063616c6c6572206973206e6f74206f6040820152701ddb995c881b9bdc88185c1c1c9bdd9959607a1b606082015260800190565b600082198211156126885761268861276d565b500190565b60008261269c5761269c612783565b500490565b60008160001904831182151516156126bb576126bb61276d565b500290565b6000828210156126d2576126d261276d565b500390565b60005b838110156126f25781810151838201526020016126da565b8381111561123e5750506000910152565b600181811c9082168061271757607f821691505b6020821081141561273857634e487b7160e01b600052602260045260246000fd5b50919050565b60006000198214156127525761275261276d565b5060010190565b60008261276857612768612783565b500690565b634e487b7160e01b600052601160045260246000fd5b634e487b7160e01b600052601260045260246000fd5b634e487b7160e01b600052602160045260246000fd5b634e487b7160e01b600052603160045260246000fd5b634e487b7160e01b600052603260045260246000fd5b634e487b7160e01b600052604160045260246000fd5b6001600160a01b0381168114610b9357600080fd5b6001600160e01b031981168114610b9357600080fdfea2646970667358221220f823787a6924ffae4681e9d02c3c8e70f31baf5b094c63a22480f213f133309f64736f6c63430008070033",
  "immutableReferences": {},
  "source": "// SPDX-License-Identifier: MIT\npragma solidity >=0.8.0 <0.9.0;\n\nimport \"@openzeppelin/contracts/token/ERC721/ERC721.sol\";\nimport \"@openzeppelin/contracts/utils/Strings.sol\";\nimport \"@openzeppelin/contracts/utils/math/Math.sol\";\nimport \"@openzeppelin/contracts/access/Ownable.sol\";\nimport \"@openzeppelin/contracts/utils/Counters.sol\";\nimport \"@openzeppelin/contracts/token/ERC721/extensions/ERC721Enumerable.sol\";\nimport \"@openzeppelin/contracts/utils/Address.sol\";\n\n/*\n@@@@@@@@@@@@@@@@@@@@@@@@@@@@@@@@@@@@@@@@@@@@@@@@@@@@@@@@@@@@@@@@@@@@@@@@@@@@@@@@@@@@@@@@@@@@@@@@@@@@@@@@@@@@@@@@@@@@@@@@@@@@@@@@@@@@@@@@@@@@@@@@@@@@@@@@@@@@@@@@@\n@@@@@@@@@@@@@@@@@@@@@@@@@@@@@@@@@@@@@@@@@@@@@@@@@@@@@@@@@@@@@@@@@@@@@@@@@@@@@@@@@@@@@@@@@@@@@@@@@@@@@@@@@@@@@@@@@@@@@@@@@@@@@@@@@@@@@@@@@@@@@@@@@@@@@@@@@@@@@@@@@\n@@@@@@@@@@@@@@@@@@@@@@@@@@@@@@@@@@@@@@@@@@@@@@@@@@@@@@@@@@@@@@@@@@@@@@@@@@@@@@@@@@@@@@@@@@@@@@@@@@@@@@@@@@@@@@@@@@@@@@@@@@@@@@@@@@@@@@@@@@@@@@@@@@@@@@@@@@@@@@@@@\n@@@@@@@@@@@@@@@@@@@@@@@@@@@@@@@@@@@@@@@@@@@@@@@@@@@@@@@@@@@@@@@@@@@@@@@@@@@@@@@@@@@@@@@@@@@@@@@@@       /@@@@@@@@@@@@@@@@@@@@@@@@@@@@@@@@@@@@@@@@@@@@@@@@@@@@@@@@\n@@@@@@@@@@@@@@@@@                 @@@@@@@@@@@@@@@@@@@@@@@@@@@@@@@@@@@@@@@@@@@@@@@@@       @@@@@            (@@@@@@@@@@@@@@@@@@@@@@@@@@@@@@@@@@@@@@@@@@@@@@@@@@@@@\n@@@@@@@@@@@                       @@@@@@@@@@         @@@@@@@@@@@@@@@@@@@@@@@@@@@@@@@                        @@@@@@@@@@@@@@@@@@@@@@@@@@@@@@@@@@@@@@@@@@@@@@@@@@@@@\n@@@@@@                          @@@@@@@@@               @@@@@@@@@@@@@@@@@@@@@@@@@@@@@@                     @@@@@@@@@@@@@@@@@@@@@@@@@@@@@@@@@@@@@@@@@@@@@@@@@@@@@@\n@@@               @@@@@@@@@@@@@@@@@@@@@@    @@    @@     @@@@@@@@@   @@@@@@@@@    @@@@@@@@@@@          @@@@@@@@@@@@@@@@@@@@@@@@@@@@@@@@@@@@@@@@@@@@@@@@@@@@@@@@@@\n@@@     @@@@      @@@@@@@@@@@@@@  @@@@@    ,@%    @       @@@@@/    @@@@@@@@@@      @@@@@@@@,      @@@@@@@@@@@     #@@@@@@@@@@@@@@@@@@@@@@@//           @@@@@@@@@\n@@@@@@@@@@@@      @@      @@@@    @@@@@     @@@   @@@     @@@@     @@@@@@@@@@@@@*     @@@@@@       @@@@@@@@.      @@@@@@   #@@@@@@@@@                  @@@@@@@@@@\n@@@@@@@@@@@@@             @@@     @@@@@@     @           @@@@     @@@@@      @@@@@    %@@@@@       @@@@@@@      @@@@&         @@@@@@           @@@@@@@@@@@@@@@@@@\n@@@@@@@@@@@            @@@@@@     #@@@@@@@             @@@@@,     @@@@        @@@@     @@@@@      @@@@@@@      @@@            @@@@@@@@@                @@@@@@@@@@\n@@@@@@@@*           @@@@@@@@@      @@@@@@@@@@&     @@@@@@@@@      @@@    @    @@@@#    @@@@@      @@@@@@.     @@       &,     @@@@@@@..   ..@@@           @@@@@@@\n@@@@@@@@@@@@@@@      @@@@@@@@/     *@@@@@@@@@@@@@@@@@@@@@@@@      @@@         @@@@     @@@@.      @@@@@@@             @       @@@@                 @@      @@@@@@\n@@@@@@@@@@@@@@@@      @@@@@@@@      /@@     @@@@@@@@@@@@@@@@      @@@@       @@@@      @@@@@      @@@@@@@                    @@@@         (@@@@/ @@(       @@@@@@\n@@@@@@@@@@@@@@@@@      @@@@@@@%            @@@@@@@@@@@@@@@@@@      @@@       @@@      @@@@@@      @@@@@@@@,                @@@@@@@                        @@@@@@@\n@@@@@@@@@@@@@@@@@@@     @@@@@@@         @@@@@@@@@@@@@@@@@@@@@@                       @@@@@@@     @@@@@@@@@@@         .@@@@@@@@@@@@@@@                  @@@@@@@@@@\n@@@@@@@@@@@@@@@@@@@@@  @@@@@@@@@@@@@@@@@@@@@@@@@@@@@@@@@@@@@@@@@@       @@         @@@@@@@@@@@@@@@@@@@@@@@@       @@@@@@@@@@@@@@@@@@@@@@@@@@@@@@@@@@@@@@@@@@@@@@@\n@@@@@@@@@@@@@@@@@@@@@@@@@@@@@@@@@@@@@@@@@@@@@@@@@@@@@@@@@@@@@@@@@@@@@@@@@@@@@@@@@@@@@@@@@@@@@@@@@@@@@@@@@@@      @@@@@@@@@@@@@@@@@@@@@@@@@@@@@@@@@@@@@@@@@@@@@@@@\n@@@@@@@@@@@@@@@@@@@@@@@@@@@@@@@@@@@@@@@@@@@@@@@@@@@@@@@@@@@@@@@@@@@@@@@@@@@@@@@@@@@@@@@@@@@@@@@@@@@@@@@@@@@      @@@@@@@@@@@@@@@@@@@@@@@@@@@@@@@@@@@@@@@@@@@@@@@@\n@@@@@@@@@@@@@@@@@@@@@@@@@@@@@@@@@@@@@@@@@@@@@@@@@@@@@@@@@@@@@@@@@@@@@@@@@@@@@@@@@@@@@@@@@@@@@@@@@@@@@@@@@@@      @@@@@@@@@@@@@@@@@@@@@@@@@@@@@@@@@@@@@@@@@@@@@@@@\n@@@@@@@@@@@@@@@@@@@@@@@@@@@@@@@@@@@@@@@@@@@@@@@@@@@@@@@@@@@@@@@@@@@@@@@@@@@@@@@@@@@@@@@@@@@@@@@@@@@@@@@@@@@@    @@@@@@@@@@@@@@@@@@@@@@@@@@@@@@@@@@@@@@@@@@@@@@@@@\n@@@@@@@@@@@@@@@@@@@@@@@@@@@@@@@@@@@@@@@@@@@@@@@@@@@@@@@@@@@@@@@@@@@@@@@@@@@@@@@@@@@@@@@@@@@@@@@@@@@@@@@@@@@@@@@@@@@@@@@@@@@@@@@@@@@@@@@@@@@@@@@@@@@@@@@@@@@@@@@@@\n*/\ncontract Flowtys is ERC721, ERC721Enumerable, Ownable {\n    using Math for uint256;\n    using Strings for string;\n    using Strings for uint256;\n    using Counters for Counters.Counter;\n\n    Counters.Counter private _tokenIdCounter;\n\n    enum Age { Fresh, Scratched, Dusty, Vintage }\n    uint256 public constant MAX_FLOWTYS = 10000;\n    // threshold in number of blocks between age steps\n    // corresponds to rougly 3 months, assuing 15s between blocks\n    uint256 public constant ageBlocksThreshold = 518400;\n    uint256 public maxFlowtysPurchase = 16;\n    uint256 public flowtyPrice = 0.08 ether;\n    bool public saleIsActive = false;\n    string public _baseFlowtyURI;\n    string public provenance;\n\n    mapping(uint256 => uint256) private _ages;\n\n    event FLowtyMinted(uint256 tokenId);\n\n    constructor(string memory baseURI) ERC721(\"Flowtys\", \"FLOWTY\") {\n        _baseFlowtyURI = baseURI;\n    }\n\n    /**\n     * Set some Flowtys aside\n     */\n    function reserveFlowtys(uint256 reservedAmount) public onlyOwner {        \n        for (uint256 i = 1; i <= reservedAmount; i++) {\n            createCollectible(msg.sender);\n        }\n    }\n\n    /*\n    * Withdraw funds to pay the team, dev, artists\n    */\n    function withdraw() public onlyOwner {\n        require(address(this).balance > 0, \"Insufficient balance\");\n\n        uint256 balance = address(this).balance;\n        Address.sendValue(payable(msg.sender), balance);\n    }\n\n    function withdrawForGiveaway(uint256 amount, address payable to) public onlyOwner {\n        require(address(this).balance > 0, \"Insufficient balance\");\n\n        Address.sendValue(to, amount);\n    }\n\n    //---------------------------------------------------------------------------------\n    /*\n    * < ageBlocksThreshold => Age.Fresh\n    * > 1x ageBlocksThreshold => Age.Scratched\n    * > 2x ageBlocksThreshold => Age.Dusty\n    * > 3x ageBlocksThreshold => Age.Vintage\n    */\n    function getAge(uint256 tokenId) public view returns (Age) {\n        require(_exists(tokenId), \"getAge query for nonexistent token\");\n        uint256 currentAge = uint((block.number - _ages[tokenId]) / ageBlocksThreshold);\n        return Age(currentAge.min(3));\n    }\n\n    function getAgeStaringBlock(uint256 tokenId) public view returns (uint256) {\n        require(_exists(tokenId), \"getAge query for nonexistent token\");\n        return _ages[tokenId];\n    }\n\n    //---------------------------------------------------------------------------------\n\n    function setBaseURI(string memory newuri) public onlyOwner {\n        _baseFlowtyURI = newuri;\n    }\n\n    function setMaxFlowtysPurchase(uint256 newMax) public onlyOwner {\n        maxFlowtysPurchase = newMax;\n    }\n\n    function setMintCost(uint256 newCost) public onlyOwner {\n        require(newCost > 0, \"flowtyPrice must be greater than zero\");\n        flowtyPrice = newCost;\n    }\n\n    /*\n    * Pause sale if active, make active if paused\n    */\n    function flipSaleState() public onlyOwner {\n        saleIsActive = !saleIsActive;\n    }\n\n    /**\n    * Mints Flowtys\n    */\n    function mintFlowty(uint numberOfTokens) public payable {\n        require(saleIsActive, \"Sale must be active to mint Flowty\");\n        require(numberOfTokens <= maxFlowtysPurchase, \"# of new NFTs is limited per single transaction\");\n        require((totalSupply() + numberOfTokens) <= MAX_FLOWTYS, \"Purchase would exceed max supply of Flowtys\");\n        require((flowtyPrice * numberOfTokens) <= msg.value, \"Ether value sent is not correct\");\n        \n        for(uint i = 0; i < numberOfTokens; i++) {\n            if (totalSupply() < MAX_FLOWTYS) {\n                createCollectible(msg.sender);\n            }\n        }\n    }\n\n    /*     \n    * Set provenance once it's calculated.\n    */\n    function setProvenanceHash(string memory provenanceHash) public onlyOwner {\n        provenance = provenanceHash;\n    }\n\n    /// Internal\n    function createCollectible(address mintAddress) private {\n      uint256 mintIndex = _tokenIdCounter.current();\n      if (mintIndex < MAX_FLOWTYS) {\n          _safeMint(mintAddress, mintIndex);\n          _tokenIdCounter.increment();\n          _ages[mintIndex] = block.number;\n          // fire event in logs\n          emit FLowtyMinted(mintIndex);\n      }\n    }\n\n    /*\n    * The aging calculation is simple, we save the initial block number once Flowty is minted\n    * if at the transaction time on a given Flowty block number suppressed ageBlocksThreshold\n    * we threat it as aged level crossed and only revert to this level\n    * In case if it's still level 0 we just store current block number as a new base\n    */\n    function updateAge(uint256 tokenId) private {\n        uint256 currentAge = uint((block.number - 1 - _ages[tokenId]) / ageBlocksThreshold);\n        uint256 currentBlockAge = block.number - _ages[tokenId];\n        if (currentBlockAge < ageBlocksThreshold) {\n            _ages[tokenId] = block.number;\n        } else if (currentBlockAge < ageBlocksThreshold * 3) {\n            _ages[tokenId] = _ages[tokenId] + (block.number - (_ages[tokenId] + ageBlocksThreshold * currentAge));\n        }\n    }\n\n    /// ERC721 related\n    /**\n     * @dev See {ERC721-transferFrom}.\n     */\n    function transferFrom(\n        address from,\n        address to,\n        uint256 tokenId\n    ) public override {\n        super.transferFrom(from, to, tokenId);\n        updateAge(tokenId);\n    }\n\n    function safeTransferFrom(\n        address from,\n        address to,\n        uint256 tokenId,\n        bytes memory _data\n    ) public override {\n        super.safeTransferFrom(from, to, tokenId, _data);\n        updateAge(tokenId);\n    }\n\n    /**\n     * @dev See {ERC721Metadata-tokenURI}.\n     */\n    function tokenURI(uint256 tokenId) public view override returns (string memory) {\n        string memory baseURI = super.tokenURI(tokenId);\n        return bytes(baseURI).length > 0 ? string(abi.encodePacked(abi.encodePacked(baseURI, \"/\"), uint256(getAge(tokenId)).toString())) : \"\";\n    }\n\n    function _baseURI() internal view override returns (string memory) {\n        return _baseFlowtyURI;\n    }\n\n    function _beforeTokenTransfer(address from, address to, uint256 tokenId) internal override(ERC721, ERC721Enumerable) {\n        super._beforeTokenTransfer(from, to, tokenId);\n    }\n\n    function supportsInterface(bytes4 interfaceId) public view override(ERC721, ERC721Enumerable) returns (bool) {\n        return super.supportsInterface(interfaceId);\n    }\n}\n",
  "sourcePath": "/Users/dmytrokabyshev/Development/HillTrix/flowtys-sale-page/Flowtys/contracts/Flowtys.sol",
  "compiler": {
    "name": "solc",
    "version": "0.8.7+commit.e28d00a7.Emscripten.clang"
  },
  "schemaVersion": "3.4.3",
  "updatedAt": "2021-09-03T19:48:54.085Z",
  "devdoc": {
    "kind": "dev",
    "methods": {
      "approve(address,uint256)": {
        "details": "See {IERC721-approve}."
      },
      "balanceOf(address)": {
        "details": "See {IERC721-balanceOf}."
      },
      "getApproved(uint256)": {
        "details": "See {IERC721-getApproved}."
      },
      "isApprovedForAll(address,address)": {
        "details": "See {IERC721-isApprovedForAll}."
      },
      "name()": {
        "details": "See {IERC721Metadata-name}."
      },
      "owner()": {
        "details": "Returns the address of the current owner."
      },
      "ownerOf(uint256)": {
        "details": "See {IERC721-ownerOf}."
      },
      "renounceOwnership()": {
        "details": "Leaves the contract without owner. It will not be possible to call `onlyOwner` functions anymore. Can only be called by the current owner. NOTE: Renouncing ownership will leave the contract without an owner, thereby removing any functionality that is only available to the owner."
      },
      "safeTransferFrom(address,address,uint256)": {
        "details": "See {IERC721-safeTransferFrom}."
      },
      "safeTransferFrom(address,address,uint256,bytes)": {
        "details": "See {IERC721-safeTransferFrom}."
      },
      "setApprovalForAll(address,bool)": {
        "details": "See {IERC721-setApprovalForAll}."
      },
      "symbol()": {
        "details": "See {IERC721Metadata-symbol}."
      },
      "tokenByIndex(uint256)": {
        "details": "See {IERC721Enumerable-tokenByIndex}."
      },
      "tokenOfOwnerByIndex(address,uint256)": {
        "details": "See {IERC721Enumerable-tokenOfOwnerByIndex}."
      },
      "tokenURI(uint256)": {
        "details": "See {ERC721Metadata-tokenURI}."
      },
      "totalSupply()": {
        "details": "See {IERC721Enumerable-totalSupply}."
      },
      "transferFrom(address,address,uint256)": {
        "details": "See {ERC721-transferFrom}."
      },
      "transferOwnership(address)": {
        "details": "Transfers ownership of the contract to a new account (`newOwner`). Can only be called by the current owner."
      }
    },
    "version": 1
  },
  "userdoc": {
    "kind": "user",
    "methods": {
      "mintFlowty(uint256)": {
        "notice": "Mints Flowtys"
      },
      "reserveFlowtys(uint256)": {
        "notice": "Set some Flowtys aside"
      }
    },
    "version": 1
  }
}