{
  "_format": "hh-sol-artifact-1",
  "contractName": "FlowtysCollabDrops",
  "sourceName": "contracts/FlowtysDrops.sol",
  "abi": [
    {
      "inputs": [],
      "stateMutability": "nonpayable",
      "type": "constructor"
    },
    {
      "anonymous": false,
      "inputs": [
        {
          "indexed": true,
          "internalType": "address",
          "name": "account",
          "type": "address"
        },
        {
          "indexed": true,
          "internalType": "address",
          "name": "operator",
          "type": "address"
        },
        {
          "indexed": false,
          "internalType": "bool",
          "name": "approved",
          "type": "bool"
        }
      ],
      "name": "ApprovalForAll",
      "type": "event"
    },
    {
      "anonymous": false,
      "inputs": [
        {
          "indexed": true,
          "internalType": "address",
          "name": "previousOwner",
          "type": "address"
        },
        {
          "indexed": true,
          "internalType": "address",
          "name": "newOwner",
          "type": "address"
        }
      ],
      "name": "OwnershipTransferred",
      "type": "event"
    },
    {
      "anonymous": false,
      "inputs": [
        {
          "indexed": false,
          "internalType": "string",
          "name": "_value",
          "type": "string"
        },
        {
          "indexed": true,
          "internalType": "uint256",
          "name": "_id",
          "type": "uint256"
        }
      ],
      "name": "PermanentURI",
      "type": "event"
    },
    {
      "anonymous": false,
      "inputs": [
        {
          "indexed": true,
          "internalType": "address",
          "name": "operator",
          "type": "address"
        },
        {
          "indexed": true,
          "internalType": "address",
          "name": "from",
          "type": "address"
        },
        {
          "indexed": true,
          "internalType": "address",
          "name": "to",
          "type": "address"
        },
        {
          "indexed": false,
          "internalType": "uint256[]",
          "name": "ids",
          "type": "uint256[]"
        },
        {
          "indexed": false,
          "internalType": "uint256[]",
          "name": "values",
          "type": "uint256[]"
        }
      ],
      "name": "TransferBatch",
      "type": "event"
    },
    {
      "anonymous": false,
      "inputs": [
        {
          "indexed": true,
          "internalType": "address",
          "name": "operator",
          "type": "address"
        },
        {
          "indexed": true,
          "internalType": "address",
          "name": "from",
          "type": "address"
        },
        {
          "indexed": true,
          "internalType": "address",
          "name": "to",
          "type": "address"
        },
        {
          "indexed": false,
          "internalType": "uint256",
          "name": "id",
          "type": "uint256"
        },
        {
          "indexed": false,
          "internalType": "uint256",
          "name": "value",
          "type": "uint256"
        }
      ],
      "name": "TransferSingle",
      "type": "event"
    },
    {
      "anonymous": false,
      "inputs": [
        {
          "indexed": false,
          "internalType": "string",
          "name": "value",
          "type": "string"
        },
        {
          "indexed": true,
          "internalType": "uint256",
          "name": "id",
          "type": "uint256"
        }
      ],
      "name": "URI",
      "type": "event"
    },
    {
      "inputs": [
        {
          "internalType": "string",
          "name": "json",
          "type": "string"
        }
      ],
      "name": "addToken",
      "outputs": [],
      "stateMutability": "nonpayable",
      "type": "function"
    },
    {
      "inputs": [
        {
          "internalType": "address",
          "name": "account",
          "type": "address"
        },
        {
          "internalType": "uint256",
          "name": "id",
          "type": "uint256"
        }
      ],
      "name": "balanceOf",
      "outputs": [
        {
          "internalType": "uint256",
          "name": "",
          "type": "uint256"
        }
      ],
      "stateMutability": "view",
      "type": "function"
    },
    {
      "inputs": [
        {
          "internalType": "address[]",
          "name": "accounts",
          "type": "address[]"
        },
        {
          "internalType": "uint256[]",
          "name": "ids",
          "type": "uint256[]"
        }
      ],
      "name": "balanceOfBatch",
      "outputs": [
        {
          "internalType": "uint256[]",
          "name": "",
          "type": "uint256[]"
        }
      ],
      "stateMutability": "view",
      "type": "function"
    },
    {
      "inputs": [
        {
          "internalType": "uint256",
          "name": "id",
          "type": "uint256"
        }
      ],
      "name": "exists",
      "outputs": [
        {
          "internalType": "bool",
          "name": "",
          "type": "bool"
        }
      ],
      "stateMutability": "view",
      "type": "function"
    },
    {
      "inputs": [
        {
          "internalType": "uint256",
          "name": "id",
          "type": "uint256"
        }
      ],
      "name": "freezeTokenData",
      "outputs": [],
      "stateMutability": "nonpayable",
      "type": "function"
    },
    {
      "inputs": [
        {
          "internalType": "address",
          "name": "account",
          "type": "address"
        },
        {
          "internalType": "address",
          "name": "operator",
          "type": "address"
        }
      ],
      "name": "isApprovedForAll",
      "outputs": [
        {
          "internalType": "bool",
          "name": "",
          "type": "bool"
        }
      ],
      "stateMutability": "view",
      "type": "function"
    },
    {
      "inputs": [
        {
          "internalType": "address",
          "name": "account",
          "type": "address"
        },
        {
          "internalType": "uint256",
          "name": "id",
          "type": "uint256"
        },
        {
          "internalType": "uint256",
          "name": "qty",
          "type": "uint256"
        }
      ],
      "name": "mintTo",
      "outputs": [],
      "stateMutability": "nonpayable",
      "type": "function"
    },
    {
      "inputs": [
        {
          "internalType": "address[]",
          "name": "to",
          "type": "address[]"
        },
        {
          "internalType": "uint256",
          "name": "id",
          "type": "uint256"
        },
        {
          "internalType": "uint256",
          "name": "qty",
          "type": "uint256"
        }
      ],
      "name": "mintToMany",
      "outputs": [],
      "stateMutability": "nonpayable",
      "type": "function"
    },
    {
      "inputs": [],
      "name": "name",
      "outputs": [
        {
          "internalType": "string",
          "name": "",
          "type": "string"
        }
      ],
      "stateMutability": "view",
      "type": "function"
    },
    {
      "inputs": [],
      "name": "owner",
      "outputs": [
        {
          "internalType": "address",
          "name": "",
          "type": "address"
        }
      ],
      "stateMutability": "view",
      "type": "function"
    },
    {
      "inputs": [],
      "name": "renounceOwnership",
      "outputs": [],
      "stateMutability": "nonpayable",
      "type": "function"
    },
    {
      "inputs": [
        {
          "internalType": "address",
          "name": "from",
          "type": "address"
        },
        {
          "internalType": "address",
          "name": "to",
          "type": "address"
        },
        {
          "internalType": "uint256[]",
          "name": "ids",
          "type": "uint256[]"
        },
        {
          "internalType": "uint256[]",
          "name": "amounts",
          "type": "uint256[]"
        },
        {
          "internalType": "bytes",
          "name": "data",
          "type": "bytes"
        }
      ],
      "name": "safeBatchTransferFrom",
      "outputs": [],
      "stateMutability": "nonpayable",
      "type": "function"
    },
    {
      "inputs": [
        {
          "internalType": "address",
          "name": "from",
          "type": "address"
        },
        {
          "internalType": "address",
          "name": "to",
          "type": "address"
        },
        {
          "internalType": "uint256",
          "name": "id",
          "type": "uint256"
        },
        {
          "internalType": "uint256",
          "name": "amount",
          "type": "uint256"
        },
        {
          "internalType": "bytes",
          "name": "data",
          "type": "bytes"
        }
      ],
      "name": "safeTransferFrom",
      "outputs": [],
      "stateMutability": "nonpayable",
      "type": "function"
    },
    {
      "inputs": [
        {
          "internalType": "address",
          "name": "operator",
          "type": "address"
        },
        {
          "internalType": "bool",
          "name": "approved",
          "type": "bool"
        }
      ],
      "name": "setApprovalForAll",
      "outputs": [],
      "stateMutability": "nonpayable",
      "type": "function"
    },
    {
      "inputs": [
        {
          "internalType": "bytes4",
          "name": "interfaceId",
          "type": "bytes4"
        }
      ],
      "name": "supportsInterface",
      "outputs": [
        {
          "internalType": "bool",
          "name": "",
          "type": "bool"
        }
      ],
      "stateMutability": "view",
      "type": "function"
    },
    {
      "inputs": [],
      "name": "symbol",
      "outputs": [
        {
          "internalType": "string",
          "name": "",
          "type": "string"
        }
      ],
      "stateMutability": "view",
      "type": "function"
    },
    {
      "inputs": [
        {
          "internalType": "uint256",
          "name": "tokenId",
          "type": "uint256"
        }
      ],
      "name": "tokenURI",
      "outputs": [
        {
          "internalType": "string",
          "name": "",
          "type": "string"
        }
      ],
      "stateMutability": "view",
      "type": "function"
    },
    {
      "inputs": [
        {
          "internalType": "uint256",
          "name": "id",
          "type": "uint256"
        }
      ],
      "name": "totalSupply",
      "outputs": [
        {
          "internalType": "uint256",
          "name": "",
          "type": "uint256"
        }
      ],
      "stateMutability": "view",
      "type": "function"
    },
    {
      "inputs": [],
      "name": "totalTokens",
      "outputs": [
        {
          "internalType": "uint256",
          "name": "",
          "type": "uint256"
        }
      ],
      "stateMutability": "view",
      "type": "function"
    },
    {
      "inputs": [
        {
          "internalType": "address",
          "name": "newOwner",
          "type": "address"
        }
      ],
      "name": "transferOwnership",
      "outputs": [],
      "stateMutability": "nonpayable",
      "type": "function"
    },
    {
      "inputs": [
        {
          "internalType": "uint256",
          "name": "id",
          "type": "uint256"
        },
        {
          "internalType": "string",
          "name": "json",
          "type": "string"
        }
      ],
      "name": "updateTokenData",
      "outputs": [],
      "stateMutability": "nonpayable",
      "type": "function"
    },
    {
      "inputs": [
        {
          "internalType": "uint256",
          "name": "id",
          "type": "uint256"
        }
      ],
      "name": "uri",
      "outputs": [
        {
          "internalType": "string",
          "name": "",
          "type": "string"
        }
      ],
      "stateMutability": "view",
      "type": "function"
    },
    {
      "inputs": [],
      "name": "withdraw",
      "outputs": [],
      "stateMutability": "nonpayable",
      "type": "function"
    },
    {
      "inputs": [
        {
          "internalType": "contract IERC20",
          "name": "token",
          "type": "address"
        }
      ],
      "name": "withdrawERC20",
      "outputs": [],
      "stateMutability": "nonpayable",
      "type": "function"
    }
  ],
  "bytecode": "0x60c0604052601760808190527f466c6f7774797320436f6c6c61627320262044726f707300000000000000000060a09081526200004091600591906200011f565b5060408051808201909152600a808252690464c4f57545944524f560b41b602090920191825262000074916006916200011f565b5060006007553480156200008757600080fd5b50604080516020810190915260008152620000a281620000b4565b50620000ae33620000cd565b62000202565b8051620000c99060029060208401906200011f565b5050565b600480546001600160a01b038381166001600160a01b0319831681179093556040519116919082907f8be0079c531659141344cd1fd0a4f28419497f9722a3daafe3b4186f6b6457e090600090a35050565b8280546200012d90620001c5565b90600052602060002090601f0160209004810192826200015157600085556200019c565b82601f106200016c57805160ff19168380011785556200019c565b828001600101855582156200019c579182015b828111156200019c5782518255916020019190600101906200017f565b50620001aa929150620001ae565b5090565b5b80821115620001aa5760008155600101620001af565b600181811c90821680620001da57607f821691505b60208210811415620001fc57634e487b7160e01b600052602260045260246000fd5b50919050565b61211380620002126000396000f3fe608060405234801561001057600080fd5b50600436106101575760003560e01c80638da5cb5b116100c3578063e985e9c51161007c578063e985e9c5146102df578063f242432a1461031b578063f2fde38b1461032e578063f303e26314610341578063f4f3b20014610354578063f97913a81461036757600080fd5b80638da5cb5b1461026357806395d89b411461027e578063a22cb46514610286578063a4819ef514610299578063bd85b039146102ac578063c87b56dd146102cc57600080fd5b80633ccfd60b116101155780633ccfd60b146101f55780634e1273f4146101fd5780634f558e791461021d578063715018a61461023f5780637e1c0c09146102475780638ce261081461025057600080fd5b8062fdd58e1461015c57806301ffc9a71461018257806306fdde03146101a55780630e89341c146101ba5780632baf2acb146101cd5780632eb2c2d6146101e2575b600080fd5b61016f61016a3660046119c1565b61037a565b6040519081526020015b60405180910390f35b610195610190366004611ae9565b610411565b6040519015158152602001610179565b6101ad610463565b6040516101799190611d30565b6101ad6101c8366004611b5c565b6104f1565b6101e06101db3660046119ec565b6105c2565b005b6101e06101f0366004611883565b61063c565b6101e06106d3565b61021061020b366004611a20565b61072c565b6040516101799190611cef565b61019561022b366004611b5c565b600090815260036020526040902054151590565b6101e061088e565b61016f60075481565b6101e061025e366004611b21565b6108c4565b6004546040516001600160a01b039091168152602001610179565b6101ad610945565b6101e0610294366004611994565b610952565b6101e06102a7366004611a81565b610a29565b61016f6102ba366004611b5c565b60009081526003602052604090205490565b6101ad6102da366004611b5c565b610ae2565b6101956102ed36600461184b565b6001600160a01b03918216600090815260016020908152604080832093909416825291909152205460ff1690565b6101e061032936600461192d565b610aed565b6101e061033c366004611828565b610b74565b6101e061034f366004611b8c565b610c0c565b6101e0610362366004611828565b610ce6565b6101e0610375366004611b5c565b610e4d565b60006001600160a01b0383166103eb5760405162461bcd60e51b815260206004820152602b60248201527f455243313135353a2062616c616e636520717565727920666f7220746865207a60448201526a65726f206164647265737360a81b60648201526084015b60405180910390fd5b506000908152602081815260408083206001600160a01b03949094168352929052205490565b60006001600160e01b03198216636cdb3d1360e11b148061044257506001600160e01b031982166303a24d0760e21b145b8061045d57506301ffc9a760e01b6001600160e01b03198316145b92915050565b6005805461047090611f59565b80601f016020809104026020016040519081016040528092919081815260200182805461049c90611f59565b80156104e95780601f106104be576101008083540402835291602001916104e9565b820191906000526020600020905b8154815290600101906020018083116104cc57829003601f168201915b505050505081565b60608160008111801561050657506007548111155b6105225760405162461bcd60e51b81526004016103e290611ef5565b6000838152600860205260409020805461053b90611f59565b80601f016020809104026020016040519081016040528092919081815260200182805461056790611f59565b80156105b45780601f10610589576101008083540402835291602001916105b4565b820191906000526020600020905b81548152906001019060200180831161059757829003601f168201915b505050505091505b50919050565b6004546001600160a01b031633146105ec5760405162461bcd60e51b81526004016103e290611ec0565b816000811180156105ff57506007548111155b61061b5760405162461bcd60e51b81526004016103e290611ef5565b61063684848460405180602001604052806000815250610f07565b50505050565b6001600160a01b038516331480610658575061065885336102ed565b6106bf5760405162461bcd60e51b815260206004820152603260248201527f455243313135353a207472616e736665722063616c6c6572206973206e6f74206044820152711bdddb995c881b9bdc88185c1c1c9bdd995960721b60648201526084016103e2565b6106cc8585858585610f3c565b5050505050565b6004546001600160a01b031633146106fd5760405162461bcd60e51b81526004016103e290611ec0565b60405133904780156108fc02916000818181858888f19350505050158015610729573d6000803e3d6000fd5b50565b606081518351146107915760405162461bcd60e51b815260206004820152602960248201527f455243313135353a206163636f756e747320616e6420696473206c656e677468604482015268040dad2e6dac2e8c6d60bb1b60648201526084016103e2565b6000835167ffffffffffffffff8111156107bb57634e487b7160e01b600052604160045260246000fd5b6040519080825280602002602001820160405280156107e4578160200160208202803683370190505b50905060005b84518110156108865761084b85828151811061081657634e487b7160e01b600052603260045260246000fd5b602002602001015185838151811061083e57634e487b7160e01b600052603260045260246000fd5b602002602001015161037a565b82828151811061086b57634e487b7160e01b600052603260045260246000fd5b602090810291909101015261087f81611fbb565b90506107ea565b509392505050565b6004546001600160a01b031633146108b85760405162461bcd60e51b81526004016103e290611ec0565b6108c26000611135565b565b6004546001600160a01b031633146108ee5760405162461bcd60e51b81526004016103e290611ec0565b6001600760008282546109019190611f41565b9091555050600754600090815260086020908152604090912082516109289284019061163c565b50506007546000908152600960205260409020805460ff19169055565b6006805461047090611f59565b336001600160a01b03831614156109bd5760405162461bcd60e51b815260206004820152602960248201527f455243313135353a2073657474696e6720617070726f76616c20737461747573604482015268103337b91039b2b63360b91b60648201526084016103e2565b3360008181526001602090815260408083206001600160a01b03871680855290835292819020805460ff191686151590811790915590519081529192917f17307eab39ab6107e8899845ad3d59bd9653f200f220920489ca2b5937696c31910160405180910390a35050565b6004546001600160a01b03163314610a535760405162461bcd60e51b81526004016103e290611ec0565b81600081118015610a6657506007548111155b610a825760405162461bcd60e51b81526004016103e290611ef5565b60005b84518110156106cc57610ad0858281518110610ab157634e487b7160e01b600052603260045260246000fd5b6020026020010151858560405180602001604052806000815250610f07565b80610ada81611fbb565b915050610a85565b606061045d826104f1565b6001600160a01b038516331480610b095750610b0985336102ed565b610b675760405162461bcd60e51b815260206004820152602960248201527f455243313135353a2063616c6c6572206973206e6f74206f776e6572206e6f7260448201526808185c1c1c9bdd995960ba1b60648201526084016103e2565b6106cc8585858585611187565b6004546001600160a01b03163314610b9e5760405162461bcd60e51b81526004016103e290611ec0565b6001600160a01b038116610c035760405162461bcd60e51b815260206004820152602660248201527f4f776e61626c653a206e6577206f776e657220697320746865207a65726f206160448201526564647265737360d01b60648201526084016103e2565b61072981611135565b6004546001600160a01b03163314610c365760405162461bcd60e51b81526004016103e290611ec0565b81600081118015610c4957506007548111155b610c655760405162461bcd60e51b81526004016103e290611ef5565b60008381526009602052604090205460ff1615610cc45760405162461bcd60e51b815260206004820152601d60248201527f546869732063616e206e6f206c6f6e676572206265207570646174656400000060448201526064016103e2565b600754600090815260086020908152604090912083516106369285019061163c565b6004546001600160a01b03163314610d105760405162461bcd60e51b81526004016103e290611ec0565b6040516370a0823160e01b81523060048201526001600160a01b0382169063a9059cbb90339083906370a082319060240160206040518083038186803b158015610d5957600080fd5b505afa158015610d6d573d6000803e3d6000fd5b505050506040513d601f19601f82011682018060405250810190610d919190611b74565b6040516001600160e01b031960e085901b1681526001600160a01b0390921660048301526024820152604401602060405180830381600087803b158015610dd757600080fd5b505af1158015610deb573d6000803e3d6000fd5b505050506040513d601f19601f82011682018060405250810190610e0f9190611acd565b6107295760405162461bcd60e51b815260206004820152600f60248201526e151c985b9cd9995c8819985a5b1959608a1b60448201526064016103e2565b6004546001600160a01b03163314610e775760405162461bcd60e51b81526004016103e290611ec0565b80600081118015610e8a57506007548111155b610ea65760405162461bcd60e51b81526004016103e290611ef5565b6000828152600960209081526040808320805460ff19166001179055600890915290819020905183917fa109ba539900bf1b633f956d63c96fc89b814c7287f7aa50a9216d0b5565720791610efb9190611d43565b60405180910390a25050565b610f13848484846112ad565b60008381526003602052604081208054849290610f31908490611f41565b909155505050505050565b8151835114610f9e5760405162461bcd60e51b815260206004820152602860248201527f455243313135353a2069647320616e6420616d6f756e7473206c656e677468206044820152670dad2e6dac2e8c6d60c31b60648201526084016103e2565b6001600160a01b038416610fc45760405162461bcd60e51b81526004016103e290611e31565b3360005b84518110156110c7576000858281518110610ff357634e487b7160e01b600052603260045260246000fd5b60200260200101519050600085838151811061101f57634e487b7160e01b600052603260045260246000fd5b602090810291909101810151600084815280835260408082206001600160a01b038e16835290935291909120549091508181101561106f5760405162461bcd60e51b81526004016103e290611e76565b6000838152602081815260408083206001600160a01b038e8116855292528083208585039055908b168252812080548492906110ac908490611f41565b92505081905550505050806110c090611fbb565b9050610fc8565b50846001600160a01b0316866001600160a01b0316826001600160a01b03167f4a39dc06d4c0dbc64b70af90fd698a233a518aa5d07e595d983b8c0526c8f7fb8787604051611117929190611d02565b60405180910390a461112d8187878787876113ae565b505050505050565b600480546001600160a01b038381166001600160a01b0319831681179093556040519116919082907f8be0079c531659141344cd1fd0a4f28419497f9722a3daafe3b4186f6b6457e090600090a35050565b6001600160a01b0384166111ad5760405162461bcd60e51b81526004016103e290611e31565b336111c68187876111bd88611519565b6106cc88611519565b6000848152602081815260408083206001600160a01b038a168452909152902054838110156112075760405162461bcd60e51b81526004016103e290611e76565b6000858152602081815260408083206001600160a01b038b8116855292528083208785039055908816825281208054869290611244908490611f41565b909155505060408051868152602081018690526001600160a01b03808916928a821692918616917fc3d58168c5ae7397731d063d5bbf3d657854427343f4c083240f7aacaa2d0f62910160405180910390a46112a4828888888888611572565b50505050505050565b6001600160a01b03841661130d5760405162461bcd60e51b815260206004820152602160248201527f455243313135353a206d696e7420746f20746865207a65726f206164647265736044820152607360f81b60648201526084016103e2565b3361131e816000876111bd88611519565b6000848152602081815260408083206001600160a01b03891684529091528120805485929061134e908490611f41565b909155505060408051858152602081018590526001600160a01b0380881692600092918516917fc3d58168c5ae7397731d063d5bbf3d657854427343f4c083240f7aacaa2d0f62910160405180910390a46106cc81600087878787611572565b6001600160a01b0384163b1561112d5760405163bc197c8160e01b81526001600160a01b0385169063bc197c81906113f29089908990889088908890600401611c4c565b602060405180830381600087803b15801561140c57600080fd5b505af192505050801561143c575060408051601f3d908101601f1916820190925261143991810190611b05565b60015b6114e957611448612002565b806308c379a01415611482575061145d61201a565b806114685750611484565b8060405162461bcd60e51b81526004016103e29190611d30565b505b60405162461bcd60e51b815260206004820152603460248201527f455243313135353a207472616e7366657220746f206e6f6e20455243313135356044820152732932b1b2b4bb32b91034b6b83632b6b2b73a32b960611b60648201526084016103e2565b6001600160e01b0319811663bc197c8160e01b146112a45760405162461bcd60e51b81526004016103e290611de9565b6040805160018082528183019092526060916000919060208083019080368337019050509050828160008151811061156157634e487b7160e01b600052603260045260246000fd5b602090810291909101015292915050565b6001600160a01b0384163b1561112d5760405163f23a6e6160e01b81526001600160a01b0385169063f23a6e61906115b69089908990889088908890600401611caa565b602060405180830381600087803b1580156115d057600080fd5b505af1925050508015611600575060408051601f3d908101601f191682019092526115fd91810190611b05565b60015b61160c57611448612002565b6001600160e01b0319811663f23a6e6160e01b146112a45760405162461bcd60e51b81526004016103e290611de9565b82805461164890611f59565b90600052602060002090601f01602090048101928261166a57600085556116b0565b82601f1061168357805160ff19168380011785556116b0565b828001600101855582156116b0579182015b828111156116b0578251825591602001919060010190611695565b506116bc9291506116c0565b5090565b5b808211156116bc57600081556001016116c1565b600082601f8301126116e5578081fd5b813560206116f282611f1d565b6040516116ff8282611f8e565b8381528281019150858301600585901b8701840188101561171e578586fd5b855b85811015611745578135611733816120a4565b84529284019290840190600101611720565b5090979650505050505050565b600082601f830112611762578081fd5b8135602061176f82611f1d565b60405161177c8282611f8e565b8381528281019150858301600585901b8701840188101561179b578586fd5b855b858110156117455781358452928401929084019060010161179d565b600082601f8301126117c9578081fd5b813567ffffffffffffffff8111156117e3576117e3611fec565b6040516117fa601f8301601f191660200182611f8e565b81815284602083860101111561180e578283fd5b816020850160208301379081016020019190915292915050565b600060208284031215611839578081fd5b8135611844816120a4565b9392505050565b6000806040838503121561185d578081fd5b8235611868816120a4565b91506020830135611878816120a4565b809150509250929050565b600080600080600060a0868803121561189a578081fd5b85356118a5816120a4565b945060208601356118b5816120a4565b9350604086013567ffffffffffffffff808211156118d1578283fd5b6118dd89838a01611752565b945060608801359150808211156118f2578283fd5b6118fe89838a01611752565b93506080880135915080821115611913578283fd5b50611920888289016117b9565b9150509295509295909350565b600080600080600060a08688031215611944578081fd5b853561194f816120a4565b9450602086013561195f816120a4565b93506040860135925060608601359150608086013567ffffffffffffffff811115611988578182fd5b611920888289016117b9565b600080604083850312156119a6578182fd5b82356119b1816120a4565b91506020830135611878816120b9565b600080604083850312156119d3578182fd5b82356119de816120a4565b946020939093013593505050565b600080600060608486031215611a00578081fd5b8335611a0b816120a4565b95602085013595506040909401359392505050565b60008060408385031215611a32578182fd5b823567ffffffffffffffff80821115611a49578384fd5b611a55868387016116d5565b93506020850135915080821115611a6a578283fd5b50611a7785828601611752565b9150509250929050565b600080600060608486031215611a95578081fd5b833567ffffffffffffffff811115611aab578182fd5b611ab7868287016116d5565b9660208601359650604090950135949350505050565b600060208284031215611ade578081fd5b8151611844816120b9565b600060208284031215611afa578081fd5b8135611844816120c7565b600060208284031215611b16578081fd5b8151611844816120c7565b600060208284031215611b32578081fd5b813567ffffffffffffffff811115611b48578182fd5b611b54848285016117b9565b949350505050565b600060208284031215611b6d578081fd5b5035919050565b600060208284031215611b85578081fd5b5051919050565b60008060408385031215611b9e578182fd5b82359150602083013567ffffffffffffffff811115611bbb578182fd5b611a77858286016117b9565b6000815180845260208085019450808401835b83811015611bf657815187529582019590820190600101611bda565b509495945050505050565b60008151808452815b81811015611c2657602081850181015186830182015201611c0a565b81811115611c375782602083870101525b50601f01601f19169290920160200192915050565b6001600160a01b0386811682528516602082015260a060408201819052600090611c7890830186611bc7565b8281036060840152611c8a8186611bc7565b90508281036080840152611c9e8185611c01565b98975050505050505050565b6001600160a01b03868116825285166020820152604081018490526060810183905260a060808201819052600090611ce490830184611c01565b979650505050505050565b6020815260006118446020830184611bc7565b604081526000611d156040830185611bc7565b8281036020840152611d278185611bc7565b95945050505050565b6020815260006118446020830184611c01565b6000602080835281845483600182811c915080831680611d6457607f831692505b858310811415611d8257634e487b7160e01b87526022600452602487fd5b878601838152602001818015611d9f5760018114611db057611dda565b60ff19861682528782019650611dda565b60008b815260209020895b86811015611dd457815484820152908501908901611dbb565b83019750505b50949998505050505050505050565b60208082526028908201527f455243313135353a204552433131353552656365697665722072656a656374656040820152676420746f6b656e7360c01b606082015260800190565b60208082526025908201527f455243313135353a207472616e7366657220746f20746865207a65726f206164604082015264647265737360d81b606082015260800190565b6020808252602a908201527f455243313135353a20696e73756666696369656e742062616c616e636520666f60408201526939103a3930b739b332b960b11b606082015260800190565b6020808252818101527f4f776e61626c653a2063616c6c6572206973206e6f7420746865206f776e6572604082015260600190565b6020808252600e908201526d546f6b656e20556e65786973747360901b604082015260600190565b600067ffffffffffffffff821115611f3757611f37611fec565b5060051b60200190565b60008219821115611f5457611f54611fd6565b500190565b600181811c90821680611f6d57607f821691505b602082108114156105bc57634e487b7160e01b600052602260045260246000fd5b601f8201601f1916810167ffffffffffffffff81118282101715611fb457611fb4611fec565b6040525050565b6000600019821415611fcf57611fcf611fd6565b5060010190565b634e487b7160e01b600052601160045260246000fd5b634e487b7160e01b600052604160045260246000fd5b600060033d111561201757600481823e5160e01c5b90565b600060443d10156120285790565b6040516003193d81016004833e81513d67ffffffffffffffff816024840111818411171561205857505050505090565b82850191508151818111156120705750505050505090565b843d870101602082850101111561208a5750505050505090565b61209960208286010187611f8e565b509095945050505050565b6001600160a01b038116811461072957600080fd5b801515811461072957600080fd5b6001600160e01b03198116811461072957600080fdfea26469706673582212201d86f4a470201f37865dd4aa7c1f51019974e929d236572e995f5f3dff87d21264736f6c63430008040033",
  "linkReferences": {},
  "deployedLinkReferences": {}
}