{
  "contractName": "Morphys",
  "abi": [
    {
      "inputs": [
        {
          "internalType": "string",
          "name": "baseURI",
          "type": "string"
        }
      ],
      "stateMutability": "nonpayable",
      "type": "constructor"
    },
    {
      "anonymous": false,
      "inputs": [
        {
          "indexed": true,
          "internalType": "address",
          "name": "owner",
          "type": "address"
        },
        {
          "indexed": true,
          "internalType": "address",
          "name": "approved",
          "type": "address"
        },
        {
          "indexed": true,
          "internalType": "uint256",
          "name": "tokenId",
          "type": "uint256"
        }
      ],
      "name": "Approval",
      "type": "event"
    },
    {
      "anonymous": false,
      "inputs": [
        {
          "indexed": true,
          "internalType": "address",
          "name": "owner",
          "type": "address"
        },
        {
          "indexed": true,
          "internalType": "address",
          "name": "operator",
          "type": "address"
        },
        {
          "indexed": false,
          "internalType": "bool",
          "name": "approved",
          "type": "bool"
        }
      ],
      "name": "ApprovalForAll",
      "type": "event"
    },
    {
      "anonymous": false,
      "inputs": [
        {
          "indexed": false,
          "internalType": "uint256",
          "name": "tokenId",
          "type": "uint256"
        }
      ],
      "name": "MorphyMinted",
      "type": "event"
    },
    {
      "anonymous": false,
      "inputs": [
        {
          "indexed": false,
          "internalType": "uint256",
          "name": "tokenId",
          "type": "uint256"
        },
        {
          "indexed": false,
          "internalType": "string",
          "name": "newBaseURI",
          "type": "string"
        }
      ],
      "name": "MorphyUpdated",
      "type": "event"
    },
    {
      "anonymous": false,
      "inputs": [
        {
          "indexed": true,
          "internalType": "address",
          "name": "previousOwner",
          "type": "address"
        },
        {
          "indexed": true,
          "internalType": "address",
          "name": "newOwner",
          "type": "address"
        }
      ],
      "name": "OwnershipTransferred",
      "type": "event"
    },
    {
      "anonymous": false,
      "inputs": [
        {
          "indexed": true,
          "internalType": "address",
          "name": "from",
          "type": "address"
        },
        {
          "indexed": true,
          "internalType": "address",
          "name": "to",
          "type": "address"
        },
        {
          "indexed": true,
          "internalType": "uint256",
          "name": "tokenId",
          "type": "uint256"
        }
      ],
      "name": "Transfer",
      "type": "event"
    },
    {
      "inputs": [],
      "name": "MAX_MORPHYS",
      "outputs": [
        {
          "internalType": "uint256",
          "name": "",
          "type": "uint256"
        }
      ],
      "stateMutability": "view",
      "type": "function"
    },
    {
      "inputs": [],
      "name": "agingPricingThreshold",
      "outputs": [
        {
          "internalType": "uint256",
          "name": "",
          "type": "uint256"
        }
      ],
      "stateMutability": "view",
      "type": "function"
    },
    {
      "inputs": [
        {
          "internalType": "address",
          "name": "to",
          "type": "address"
        },
        {
          "internalType": "uint256",
          "name": "tokenId",
          "type": "uint256"
        }
      ],
      "name": "approve",
      "outputs": [],
      "stateMutability": "nonpayable",
      "type": "function"
    },
    {
      "inputs": [
        {
          "internalType": "address",
          "name": "owner",
          "type": "address"
        }
      ],
      "name": "balanceOf",
      "outputs": [
        {
          "internalType": "uint256",
          "name": "",
          "type": "uint256"
        }
      ],
      "stateMutability": "view",
      "type": "function"
    },
    {
      "inputs": [],
      "name": "currentSeasonalCollectionURI",
      "outputs": [
        {
          "internalType": "string",
          "name": "",
          "type": "string"
        }
      ],
      "stateMutability": "view",
      "type": "function"
    },
    {
      "inputs": [],
      "name": "flowtysContract",
      "outputs": [
        {
          "internalType": "address",
          "name": "",
          "type": "address"
        }
      ],
      "stateMutability": "view",
      "type": "function"
    },
    {
      "inputs": [
        {
          "internalType": "uint256",
          "name": "tokenId",
          "type": "uint256"
        }
      ],
      "name": "getApproved",
      "outputs": [
        {
          "internalType": "address",
          "name": "",
          "type": "address"
        }
      ],
      "stateMutability": "view",
      "type": "function"
    },
    {
      "inputs": [
        {
          "internalType": "address",
          "name": "owner",
          "type": "address"
        },
        {
          "internalType": "address",
          "name": "operator",
          "type": "address"
        }
      ],
      "name": "isApprovedForAll",
      "outputs": [
        {
          "internalType": "bool",
          "name": "",
          "type": "bool"
        }
      ],
      "stateMutability": "view",
      "type": "function"
    },
    {
      "inputs": [],
      "name": "lastFlowtyMintedBlock",
      "outputs": [
        {
          "internalType": "uint256",
          "name": "",
          "type": "uint256"
        }
      ],
      "stateMutability": "view",
      "type": "function"
    },
    {
      "inputs": [],
      "name": "maxPerMint",
      "outputs": [
        {
          "internalType": "uint256",
          "name": "",
          "type": "uint256"
        }
      ],
      "stateMutability": "view",
      "type": "function"
    },
    {
      "inputs": [],
      "name": "mintingIsActive",
      "outputs": [
        {
          "internalType": "bool",
          "name": "",
          "type": "bool"
        }
      ],
      "stateMutability": "view",
      "type": "function"
    },
    {
      "inputs": [],
      "name": "mintingMaxPrice",
      "outputs": [
        {
          "internalType": "uint256",
          "name": "",
          "type": "uint256"
        }
      ],
      "stateMutability": "view",
      "type": "function"
    },
    {
      "inputs": [],
      "name": "mintingPriceTier1",
      "outputs": [
        {
          "internalType": "uint256",
          "name": "",
          "type": "uint256"
        }
      ],
      "stateMutability": "view",
      "type": "function"
    },
    {
      "inputs": [],
      "name": "mintingPriceTier2",
      "outputs": [
        {
          "internalType": "uint256",
          "name": "",
          "type": "uint256"
        }
      ],
      "stateMutability": "view",
      "type": "function"
    },
    {
      "inputs": [],
      "name": "mintingPriceTier3",
      "outputs": [
        {
          "internalType": "uint256",
          "name": "",
          "type": "uint256"
        }
      ],
      "stateMutability": "view",
      "type": "function"
    },
    {
      "inputs": [],
      "name": "morhpingAgeThreeshold",
      "outputs": [
        {
          "internalType": "enum Flowtys.Age",
          "name": "",
          "type": "uint8"
        }
      ],
      "stateMutability": "view",
      "type": "function"
    },
    {
      "inputs": [],
      "name": "morphingIsActive",
      "outputs": [
        {
          "internalType": "bool",
          "name": "",
          "type": "bool"
        }
      ],
      "stateMutability": "view",
      "type": "function"
    },
    {
      "inputs": [],
      "name": "morphingPrice",
      "outputs": [
        {
          "internalType": "uint256",
          "name": "",
          "type": "uint256"
        }
      ],
      "stateMutability": "view",
      "type": "function"
    },
    {
      "inputs": [],
      "name": "name",
      "outputs": [
        {
          "internalType": "string",
          "name": "",
          "type": "string"
        }
      ],
      "stateMutability": "view",
      "type": "function"
    },
    {
      "inputs": [],
      "name": "owner",
      "outputs": [
        {
          "internalType": "address",
          "name": "",
          "type": "address"
        }
      ],
      "stateMutability": "view",
      "type": "function"
    },
    {
      "inputs": [
        {
          "internalType": "uint256",
          "name": "tokenId",
          "type": "uint256"
        }
      ],
      "name": "ownerOf",
      "outputs": [
        {
          "internalType": "address",
          "name": "",
          "type": "address"
        }
      ],
      "stateMutability": "view",
      "type": "function"
    },
    {
      "inputs": [],
      "name": "renounceOwnership",
      "outputs": [],
      "stateMutability": "nonpayable",
      "type": "function"
    },
    {
      "inputs": [
        {
          "internalType": "address",
          "name": "from",
          "type": "address"
        },
        {
          "internalType": "address",
          "name": "to",
          "type": "address"
        },
        {
          "internalType": "uint256",
          "name": "tokenId",
          "type": "uint256"
        }
      ],
      "name": "safeTransferFrom",
      "outputs": [],
      "stateMutability": "nonpayable",
      "type": "function"
    },
    {
      "inputs": [
        {
          "internalType": "address",
          "name": "from",
          "type": "address"
        },
        {
          "internalType": "address",
          "name": "to",
          "type": "address"
        },
        {
          "internalType": "uint256",
          "name": "tokenId",
          "type": "uint256"
        },
        {
          "internalType": "bytes",
          "name": "_data",
          "type": "bytes"
        }
      ],
      "name": "safeTransferFrom",
      "outputs": [],
      "stateMutability": "nonpayable",
      "type": "function"
    },
    {
      "inputs": [
        {
          "internalType": "address",
          "name": "operator",
          "type": "address"
        },
        {
          "internalType": "bool",
          "name": "approved",
          "type": "bool"
        }
      ],
      "name": "setApprovalForAll",
      "outputs": [],
      "stateMutability": "nonpayable",
      "type": "function"
    },
    {
      "inputs": [],
      "name": "symbol",
      "outputs": [
        {
          "internalType": "string",
          "name": "",
          "type": "string"
        }
      ],
      "stateMutability": "view",
      "type": "function"
    },
    {
      "inputs": [
        {
          "internalType": "uint256",
          "name": "index",
          "type": "uint256"
        }
      ],
      "name": "tokenByIndex",
      "outputs": [
        {
          "internalType": "uint256",
          "name": "",
          "type": "uint256"
        }
      ],
      "stateMutability": "view",
      "type": "function"
    },
    {
      "inputs": [
        {
          "internalType": "address",
          "name": "owner",
          "type": "address"
        },
        {
          "internalType": "uint256",
          "name": "index",
          "type": "uint256"
        }
      ],
      "name": "tokenOfOwnerByIndex",
      "outputs": [
        {
          "internalType": "uint256",
          "name": "",
          "type": "uint256"
        }
      ],
      "stateMutability": "view",
      "type": "function"
    },
    {
      "inputs": [],
      "name": "totalSupply",
      "outputs": [
        {
          "internalType": "uint256",
          "name": "",
          "type": "uint256"
        }
      ],
      "stateMutability": "view",
      "type": "function"
    },
    {
      "inputs": [
        {
          "internalType": "address",
          "name": "from",
          "type": "address"
        },
        {
          "internalType": "address",
          "name": "to",
          "type": "address"
        },
        {
          "internalType": "uint256",
          "name": "tokenId",
          "type": "uint256"
        }
      ],
      "name": "transferFrom",
      "outputs": [],
      "stateMutability": "nonpayable",
      "type": "function"
    },
    {
      "inputs": [
        {
          "internalType": "address",
          "name": "newOwner",
          "type": "address"
        }
      ],
      "name": "transferOwnership",
      "outputs": [],
      "stateMutability": "nonpayable",
      "type": "function"
    },
    {
      "inputs": [],
      "name": "withdraw",
      "outputs": [],
      "stateMutability": "nonpayable",
      "type": "function"
    },
    {
      "inputs": [
        {
          "internalType": "uint256",
          "name": "newCost",
          "type": "uint256"
        }
      ],
      "name": "setMorphingCost",
      "outputs": [],
      "stateMutability": "nonpayable",
      "type": "function"
    },
    {
      "inputs": [
        {
          "internalType": "enum Flowtys.Age",
          "name": "age",
          "type": "uint8"
        }
      ],
      "name": "setMorphingFreeStage",
      "outputs": [],
      "stateMutability": "nonpayable",
      "type": "function"
    },
    {
      "inputs": [
        {
          "internalType": "uint256",
          "name": "newCostTier1",
          "type": "uint256"
        },
        {
          "internalType": "uint256",
          "name": "newCostTier2",
          "type": "uint256"
        },
        {
          "internalType": "uint256",
          "name": "newCostTier3",
          "type": "uint256"
        },
        {
          "internalType": "uint256",
          "name": "newCostMax",
          "type": "uint256"
        }
      ],
      "name": "setMintingMaxCost",
      "outputs": [],
      "stateMutability": "nonpayable",
      "type": "function"
    },
    {
      "inputs": [
        {
          "internalType": "uint256",
          "name": "newMax",
          "type": "uint256"
        }
      ],
      "name": "setMintMax",
      "outputs": [],
      "stateMutability": "nonpayable",
      "type": "function"
    },
    {
      "inputs": [
        {
          "internalType": "string",
          "name": "newuri",
          "type": "string"
        }
      ],
      "name": "setCurrentCollectionBaseURI",
      "outputs": [],
      "stateMutability": "nonpayable",
      "type": "function"
    },
    {
      "inputs": [],
      "name": "flipMorphingState",
      "outputs": [],
      "stateMutability": "nonpayable",
      "type": "function"
    },
    {
      "inputs": [],
      "name": "flipMintingState",
      "outputs": [],
      "stateMutability": "nonpayable",
      "type": "function"
    },
    {
      "inputs": [],
      "name": "reserveMorphys",
      "outputs": [],
      "stateMutability": "nonpayable",
      "type": "function"
    },
    {
      "inputs": [
        {
          "internalType": "uint256",
          "name": "tokenId",
          "type": "uint256"
        }
      ],
      "name": "mintPrice",
      "outputs": [
        {
          "internalType": "uint256",
          "name": "",
          "type": "uint256"
        }
      ],
      "stateMutability": "view",
      "type": "function"
    },
    {
      "inputs": [
        {
          "internalType": "uint256[]",
          "name": "tokenIds",
          "type": "uint256[]"
        }
      ],
      "name": "mintPriceForAll",
      "outputs": [
        {
          "internalType": "uint256[]",
          "name": "",
          "type": "uint256[]"
        }
      ],
      "stateMutability": "view",
      "type": "function"
    },
    {
      "inputs": [
        {
          "internalType": "uint256[]",
          "name": "tokenIds",
          "type": "uint256[]"
        }
      ],
      "name": "getTotalPrice",
      "outputs": [
        {
          "internalType": "uint256",
          "name": "",
          "type": "uint256"
        }
      ],
      "stateMutability": "view",
      "type": "function"
    },
    {
      "inputs": [
        {
          "internalType": "uint256[]",
          "name": "tokenIds",
          "type": "uint256[]"
        }
      ],
      "name": "mintMorphy",
      "outputs": [],
      "stateMutability": "payable",
      "type": "function"
    },
    {
      "inputs": [
        {
          "internalType": "uint256[]",
          "name": "tokenIds",
          "type": "uint256[]"
        }
      ],
      "name": "morphSeason",
      "outputs": [],
      "stateMutability": "payable",
      "type": "function"
    },
    {
      "inputs": [
        {
          "internalType": "uint256",
          "name": "tokenId",
          "type": "uint256"
        }
      ],
      "name": "tokenURI",
      "outputs": [
        {
          "internalType": "string",
          "name": "",
          "type": "string"
        }
      ],
      "stateMutability": "view",
      "type": "function"
    },
    {
      "inputs": [
        {
          "internalType": "bytes4",
          "name": "interfaceId",
          "type": "bytes4"
        }
      ],
      "name": "supportsInterface",
      "outputs": [
        {
          "internalType": "bool",
          "name": "",
          "type": "bool"
        }
      ],
      "stateMutability": "view",
      "type": "function"
    }
  ],
  "bytecode": "0x60806040526064600b55600c805461ffff19169055662aa1efb94e0000600e55663ff2e795f50000600f55665543df729c0000601055666a94d74f43000060115562ca6370601255619d80601355662386f26fc100006014556015805460ff19166001179055601880546001600160a01b0319167352607cb9c342821ea41ad265b9bb6a23bea494681790553480156200009857600080fd5b50604051620036de380380620036de833981016040819052620000bb91620002b0565b604080518082018252600781527f4d6f72706879730000000000000000000000000000000000000000000000000060208083019182528351808501909452600684527f4d4f5250485900000000000000000000000000000000000000000000000000009084015281519192916200013591600091620001db565b5080516200014b906001906020840190620001db565b50505062000168620001626200018560201b60201c565b62000189565b80516200017d90600d906020840190620001db565b5050620003e2565b3390565b600a80546001600160a01b038381166001600160a01b0319831681179093556040519116919082907f8be0079c531659141344cd1fd0a4f28419497f9722a3daafe3b4186f6b6457e090600090a35050565b828054620001e9906200038c565b90600052602060002090601f0160209004810192826200020d576000855562000258565b82601f106200022857805160ff191683800117855562000258565b8280016001018555821562000258579182015b82811115620002585782518255916020019190600101906200023b565b50620002669291506200026a565b5090565b5b808211156200026657600081556001016200026b565b7f4e487b7100000000000000000000000000000000000000000000000000000000600052604160045260246000fd5b60006020808385031215620002c457600080fd5b82516001600160401b0380821115620002dc57600080fd5b818501915085601f830112620002f157600080fd5b81518181111562000306576200030662000281565b604051601f8201601f19908116603f0116810190838211818310171562000331576200033162000281565b8160405282815288868487010111156200034a57600080fd5b600093505b828410156200036e57848401860151818501870152928501926200034f565b82841115620003805760008684830101525b98975050505050505050565b600181811c90821680620003a157607f821691505b60208210811415620003dc577f4e487b7100000000000000000000000000000000000000000000000000000000600052602260045260246000fd5b50919050565b6132ec80620003f26000396000f3fe6080604052600436106102885760003560e01c80635089ffc51161015a578063b88d4fde116100c1578063e1f61c181161007a578063e1f61c1814610746578063e6a72acf1461075c578063e93308f81461077c578063e985e9c514610792578063f2fde38b146107db578063f655ff22146107fb57600080fd5b8063b88d4fde146106a5578063bb2bcda8146106c5578063c87b56dd146106e4578063c99eeb6314610704578063d8aca1de1461071a578063dd2f355e1461073057600080fd5b80637408b44d116101135780637408b44d146105ef5780638da5cb5b1461061c57806395d89b411461063a578063a22cb4651461064f578063ae4879f01461066f578063afc3cb491461068557600080fd5b80635089ffc5146105335780635a504e74146105535780636352211e1461057357806370a082311461059357806370ca7077146105b3578063715018a6146105da57600080fd5b80632f745c59116101fe57806342842e0e116101b757806342842e0e1461048e578063451e5104146104ae578063459eff3d146104c35780634728b9f4146104e35780634f6ccce7146104fd578063507e094f1461051d57600080fd5b80632f745c59146103f957806332fd6fb71461041957806333cc4c291461042f5780633642beec1461044457806338a68940146104595780633ccfd60b1461047957600080fd5b8063095ea7b311610250578063095ea7b31461035e5780630fa29df21461037e57806318160ddd146103915780631c5bc8c4146103b057806323b872dd146103c657806324c64967146103e657600080fd5b806301ffc9a71461028d57806302e051e2146102c2578063059b1f63146102e457806306fdde031461031c578063081812fc1461033e575b600080fd5b34801561029957600080fd5b506102ad6102a8366004612a95565b610810565b60405190151581526020015b60405180910390f35b3480156102ce57600080fd5b506102e26102dd366004612ab2565b610821565b005b3480156102f057600080fd5b50601854610304906001600160a01b031681565b6040516001600160a01b0390911681526020016102b9565b34801561032857600080fd5b50610331610859565b6040516102b99190612b23565b34801561034a57600080fd5b50610304610359366004612ab2565b6108eb565b34801561036a57600080fd5b506102e2610379366004612b4b565b610973565b6102e261038c366004612bbe565b610a89565b34801561039d57600080fd5b506008545b6040519081526020016102b9565b3480156103bc57600080fd5b506103a261271081565b3480156103d257600080fd5b506102e26103e1366004612c64565b610d92565b6102e26103f4366004612bbe565b610dc3565b34801561040557600080fd5b506103a2610414366004612b4b565b6111af565b34801561042557600080fd5b506103a2600e5481565b34801561043b57600080fd5b50610331611245565b34801561045057600080fd5b506102e26112d3565b34801561046557600080fd5b506102e2610474366004612cb2565b611425565b34801561048557600080fd5b506102e2611476565b34801561049a57600080fd5b506102e26104a9366004612c64565b6114f4565b3480156104ba57600080fd5b506102e261150f565b3480156104cf57600080fd5b506103a26104de366004612bbe565b611556565b3480156104ef57600080fd5b50600c546102ad9060ff1681565b34801561050957600080fd5b506103a2610518366004612ab2565b6115ab565b34801561052957600080fd5b506103a2600b5481565b34801561053f57600080fd5b506102e261054e366004612ccf565b61163e565b34801561055f57600080fd5b506102e261056e366004612d59565b61167c565b34801561057f57600080fd5b5061030461058e366004612ab2565b6116bd565b34801561059f57600080fd5b506103a26105ae366004612da2565b611734565b3480156105bf57600080fd5b506015546105cd9060ff1681565b6040516102b99190612dd5565b3480156105e657600080fd5b506102e26117bb565b3480156105fb57600080fd5b5061060f61060a366004612bbe565b6117f1565b6040516102b99190612dfd565b34801561062857600080fd5b50600a546001600160a01b0316610304565b34801561064657600080fd5b50610331611904565b34801561065b57600080fd5b506102e261066a366004612e41565b611913565b34801561067b57600080fd5b506103a260115481565b34801561069157600080fd5b506102e26106a0366004612ab2565b6119d8565b3480156106b157600080fd5b506102e26106c0366004612e7f565b611a07565b3480156106d157600080fd5b50600c546102ad90610100900460ff1681565b3480156106f057600080fd5b506103316106ff366004612ab2565b611a39565b34801561071057600080fd5b506103a260105481565b34801561072657600080fd5b506103a2600f5481565b34801561073c57600080fd5b506103a260125481565b34801561075257600080fd5b506103a260145481565b34801561076857600080fd5b506103a2610777366004612ab2565b611b91565b34801561078857600080fd5b506103a260135481565b34801561079e57600080fd5b506102ad6107ad366004612eff565b6001600160a01b03918216600090815260056020908152604080832093909416825291909152205460ff1690565b3480156107e757600080fd5b506102e26107f6366004612da2565b611cc3565b34801561080757600080fd5b506102e2611d5b565b600061081b82611d99565b92915050565b600a546001600160a01b031633146108545760405162461bcd60e51b815260040161084b90612f2d565b60405180910390fd5b601455565b60606000805461086890612f62565b80601f016020809104026020016040519081016040528092919081815260200182805461089490612f62565b80156108e15780601f106108b6576101008083540402835291602001916108e1565b820191906000526020600020905b8154815290600101906020018083116108c457829003601f168201915b5050505050905090565b60006108f682611dbe565b6109575760405162461bcd60e51b815260206004820152602c60248201527f4552433732313a20617070726f76656420717565727920666f72206e6f6e657860448201526b34b9ba32b73a103a37b5b2b760a11b606482015260840161084b565b506000908152600460205260409020546001600160a01b031690565b600061097e826116bd565b9050806001600160a01b0316836001600160a01b031614156109ec5760405162461bcd60e51b815260206004820152602160248201527f4552433732313a20617070726f76616c20746f2063757272656e74206f776e656044820152603960f91b606482015260840161084b565b336001600160a01b0382161480610a085750610a0881336107ad565b610a7a5760405162461bcd60e51b815260206004820152603860248201527f4552433732313a20617070726f76652063616c6c6572206973206e6f74206f7760448201527f6e6572206e6f7220617070726f76656420666f7220616c6c0000000000000000606482015260840161084b565b610a848383611ddb565b505050565b600b5481511115610aee5760405162461bcd60e51b815260206004820152602960248201527f4d696e74696e6720746f6f206d756368206174206f6e6365206973206e6f74206044820152681cdd5c1c1bdc9d195960ba1b606482015260840161084b565b600c5460ff16610b4e5760405162461bcd60e51b815260206004820152602560248201527f4d696e74696e67206d7573742062652061637469766520746f206d696e74204d6044820152646f7270687960d81b606482015260840161084b565b6127108151610b5c60085490565b610b669190612fb3565b1115610bc45760405162461bcd60e51b815260206004820152602760248201527f4d696e7420776f756c6420657863656564206d617820737570706c79206f66206044820152664d6f726870797360c81b606482015260840161084b565b6018546001600160a01b031660005b8251811015610cf957336001600160a01b0316826001600160a01b0316636352211e858481518110610c0757610c07612fcb565b60200260200101516040518263ffffffff1660e01b8152600401610c2d91815260200190565b60206040518083038186803b158015610c4557600080fd5b505afa158015610c59573d6000803e3d6000fd5b505050506040513d601f19601f82011682018060405250810190610c7d9190612fe1565b6001600160a01b031614610ce75760405162461bcd60e51b815260206004820152602b60248201527f417474656d707420746f206d696e74204d6f7270687920666f72206e6f6e206f60448201526a776e656420466c6f77747960a81b606482015260840161084b565b80610cf181612ffe565b915050610bd3565b5034610d0483611556565b14610d515760405162461bcd60e51b815260206004820152601f60248201527f45746865722076616c75652073656e74206973206e6f7420636f727265637400604482015260640161084b565b60005b8251811015610a8457610d8033848381518110610d7357610d73612fcb565b6020026020010151611e49565b80610d8a81612ffe565b915050610d54565b610d9c3382611efd565b610db85760405162461bcd60e51b815260040161084b90613019565b610a84838383611fe7565b600c54610100900460ff16610e2b5760405162461bcd60e51b815260206004820152602860248201527f4d6f727068696e67206d7573742062652061637469766520746f206368616e67604482015267329039b2b0b9b7b760c11b606482015260840161084b565b6018546001600160a01b03166000805b83518110156110a257336001600160a01b0316610e70858381518110610e6357610e63612fcb565b60200260200101516116bd565b6001600160a01b0316141580610ea55750610ea3848281518110610e9657610e96612fcb565b6020026020010151611dbe565b155b15610f085760405162461bcd60e51b815260206004820152602d60248201527f547279696e6720746f206d6f727068206e6f6e206578697374696e672f6e6f7460448201526c206f776e6564204d6f7270687960981b606482015260840161084b565b336001600160a01b0316836001600160a01b0316636352211e868481518110610f3357610f33612fcb565b60200260200101516040518263ffffffff1660e01b8152600401610f5991815260200190565b60206040518083038186803b158015610f7157600080fd5b505afa158015610f85573d6000803e3d6000fd5b505050506040513d601f19601f82011682018060405250810190610fa99190612fe1565b6001600160a01b031614801561107c575060155460ff166003811115610fd157610fd1612dbf565b836001600160a01b0316630e37008a868481518110610ff257610ff2612fcb565b60200260200101516040518263ffffffff1660e01b815260040161101891815260200190565b60206040518083038186803b15801561103057600080fd5b505afa158015611044573d6000803e3d6000fd5b505050506040513d601f19601f82011682018060405250810190611068919061306a565b600381111561107957611079612dbf565b10155b6110905760145461108d9083612fb3565b91505b8061109a81612ffe565b915050610e3b565b503481146110f25760405162461bcd60e51b815260206004820152601f60248201527f45746865722076616c75652073656e74206973206e6f7420636f727265637400604482015260640161084b565b60005b83518110156111a957600d6017600086848151811061111657611116612fcb565b6020026020010151815260200190815260200160002090805461113890612f62565b61114392919061296b565b507fa3f3167ea8c70c56002c873649dd0aa97d7cdaf661b3948b0fe6c712a40cf83784828151811061117757611177612fcb565b6020026020010151600d60405161118f929190613087565b60405180910390a1806111a181612ffe565b9150506110f5565b50505050565b60006111ba83611734565b821061121c5760405162461bcd60e51b815260206004820152602b60248201527f455243373231456e756d657261626c653a206f776e657220696e646578206f7560448201526a74206f6620626f756e647360a81b606482015260840161084b565b506001600160a01b03919091166000908152600660209081526040808320938352929052205490565b600d805461125290612f62565b80601f016020809104026020016040519081016040528092919081815260200182805461127e90612f62565b80156112cb5780601f106112a0576101008083540402835291602001916112cb565b820191906000526020600020905b8154815290600101906020018083116112ae57829003601f168201915b505050505081565b600a546001600160a01b031633146112fd5760405162461bcd60e51b815260040161084b90612f2d565b6018546040516370a0823160e01b81523360048201526001600160a01b039091169060009082906370a082319060240160206040518083038186803b15801561134557600080fd5b505afa158015611359573d6000803e3d6000fd5b505050506040513d601f19601f8201168201806040525081019061137d9190613138565b905060005b81811015610a8457604051632f745c5960e01b8152336004820181905260248201839052611413916001600160a01b03861690632f745c599060440160206040518083038186803b1580156113d657600080fd5b505afa1580156113ea573d6000803e3d6000fd5b505050506040513d601f19601f8201168201806040525081019061140e9190613138565b611e49565b8061141d81612ffe565b915050611382565b600a546001600160a01b0316331461144f5760405162461bcd60e51b815260040161084b90612f2d565b6015805482919060ff1916600183600381111561146e5761146e612dbf565b021790555050565b600a546001600160a01b031633146114a05760405162461bcd60e51b815260040161084b90612f2d565b30316114e55760405162461bcd60e51b8152602060048201526014602482015273496e73756666696369656e742062616c616e636560601b604482015260640161084b565b30316114f13382612192565b50565b610a8483838360405180602001604052806000815250611a07565b600a546001600160a01b031633146115395760405162461bcd60e51b815260040161084b90612f2d565b600c805461ff001981166101009182900460ff1615909102179055565b600080805b83518110156115a45761158684828151811061157957611579612fcb565b6020026020010151611b91565b6115909083612fb3565b91508061159c81612ffe565b91505061155b565b5092915050565b60006115b660085490565b82106116195760405162461bcd60e51b815260206004820152602c60248201527f455243373231456e756d657261626c653a20676c6f62616c20696e646578206f60448201526b7574206f6620626f756e647360a01b606482015260840161084b565b6008828154811061162c5761162c612fcb565b90600052602060002001549050919050565b600a546001600160a01b031633146116685760405162461bcd60e51b815260040161084b90612f2d565b600e93909355600f91909155601055601155565b600a546001600160a01b031633146116a65760405162461bcd60e51b815260040161084b90612f2d565b80516116b990600d9060208401906129f6565b5050565b6000818152600260205260408120546001600160a01b03168061081b5760405162461bcd60e51b815260206004820152602960248201527f4552433732313a206f776e657220717565727920666f72206e6f6e657869737460448201526832b73a103a37b5b2b760b91b606482015260840161084b565b60006001600160a01b03821661179f5760405162461bcd60e51b815260206004820152602a60248201527f4552433732313a2062616c616e636520717565727920666f7220746865207a65604482015269726f206164647265737360b01b606482015260840161084b565b506001600160a01b031660009081526003602052604090205490565b600a546001600160a01b031633146117e55760405162461bcd60e51b815260040161084b90612f2d565b6117ef60006122ac565b565b60606127108251111561186c5760405162461bcd60e51b815260206004820152603760248201527f43616e206e6f742063616c63756c61746520707269636520666f7220636f756e60448201527f7420657863656564696e67204d41585f4d4f5250485953000000000000000000606482015260840161084b565b6000825167ffffffffffffffff81111561188857611888612b77565b6040519080825280602002602001820160405280156118b1578160200160208202803683370190505b50905060005b83518110156115a4576118d584828151811061157957611579612fcb565b8282815181106118e7576118e7612fcb565b6020908102919091010152806118fc81612ffe565b9150506118b7565b60606001805461086890612f62565b6001600160a01b03821633141561196c5760405162461bcd60e51b815260206004820152601960248201527f4552433732313a20617070726f766520746f2063616c6c657200000000000000604482015260640161084b565b3360008181526005602090815260408083206001600160a01b03871680855290835292819020805460ff191686151590811790915590519081529192917f17307eab39ab6107e8899845ad3d59bd9653f200f220920489ca2b5937696c31910160405180910390a35050565b600a546001600160a01b03163314611a025760405162461bcd60e51b815260040161084b90612f2d565b600b55565b611a113383611efd565b611a2d5760405162461bcd60e51b815260040161084b90613019565b6111a9848484846122fe565b6060611a4482611dbe565b611aa85760405162461bcd60e51b815260206004820152602f60248201527f4552433732314d657461646174613a2055524920717565727920666f72206e6f60448201526e3732bc34b9ba32b73a103a37b5b2b760891b606482015260840161084b565b60008281526017602052604081208054611ac190612f62565b80601f0160208091040260200160405190810160405280929190818152602001828054611aed90612f62565b8015611b3a5780601f10611b0f57610100808354040283529160200191611b3a565b820191906000526020600020905b815481529060010190602001808311611b1d57829003601f168201915b505050505090506000815111611b5f5760405180602001604052806000815250611b8a565b80611b6984612331565b604051602001611b7a929190613151565b6040516020818303038152906040525b9392505050565b601854604051632eb577e360e11b8152600481018390526000916001600160a01b03169082908290635d6aefc69060240160206040518083038186803b158015611bda57600080fd5b505afa158015611bee573d6000803e3d6000fd5b505050506040513d601f19601f82011682018060405250810190611c129190613138565b9050601354601254611c249190612fb3565b8111611c34575060009392505050565b601354611c42906002613180565b601254611c4f9190612fb3565b8111611c60575050600e5492915050565b601354611c6e906003613180565b601254611c7b9190612fb3565b8111611c8c575050600f5492915050565b601354611c9a906004613180565b601254611ca79190612fb3565b8111611cb857505060105492915050565b505060115492915050565b600a546001600160a01b03163314611ced5760405162461bcd60e51b815260040161084b90612f2d565b6001600160a01b038116611d525760405162461bcd60e51b815260206004820152602660248201527f4f776e61626c653a206e6577206f776e657220697320746865207a65726f206160448201526564647265737360d01b606482015260840161084b565b6114f1816122ac565b600a546001600160a01b03163314611d855760405162461bcd60e51b815260040161084b90612f2d565b600c805460ff19811660ff90911615179055565b60006001600160e01b0319821663780e9d6360e01b148061081b575061081b8261242f565b6000908152600260205260409020546001600160a01b0316151590565b600081815260046020526040902080546001600160a01b0319166001600160a01b0384169081179091558190611e10826116bd565b6001600160a01b03167f8c5be1e5ebec7d5bd14f71427d1e84f3dd0314c0f7b2291e5b200ac8c7c3b92560405160405180910390a45050565b61271081108015611e605750611e5e81611dbe565b155b8015611e7b575060008181526016602052604090205460ff16155b156116b957611e8a828261247f565b6000818152601660209081526040808320805460ff1916600117905560179091529020600d8054611eba90612f62565b611ec592919061296b565b506040518181527f568c0211d44321da426f632064ad2d5bcbcc60837956c67fb6575a23bd0cc5139060200160405180910390a15050565b6000611f0882611dbe565b611f695760405162461bcd60e51b815260206004820152602c60248201527f4552433732313a206f70657261746f7220717565727920666f72206e6f6e657860448201526b34b9ba32b73a103a37b5b2b760a11b606482015260840161084b565b6000611f74836116bd565b9050806001600160a01b0316846001600160a01b03161480611faf5750836001600160a01b0316611fa4846108eb565b6001600160a01b0316145b80611fdf57506001600160a01b0380821660009081526005602090815260408083209388168352929052205460ff165b949350505050565b826001600160a01b0316611ffa826116bd565b6001600160a01b0316146120625760405162461bcd60e51b815260206004820152602960248201527f4552433732313a207472616e73666572206f6620746f6b656e2074686174206960448201526839903737ba1037bbb760b91b606482015260840161084b565b6001600160a01b0382166120c45760405162461bcd60e51b8152602060048201526024808201527f4552433732313a207472616e7366657220746f20746865207a65726f206164646044820152637265737360e01b606482015260840161084b565b6120cf838383612499565b6120da600082611ddb565b6001600160a01b038316600090815260036020526040812080546001929061210390849061319f565b90915550506001600160a01b0382166000908152600360205260408120805460019290612131908490612fb3565b909155505060008181526002602052604080822080546001600160a01b0319166001600160a01b0386811691821790925591518493918716917fddf252ad1be2c89b69c2b068fc378daa952ba7f163c4a11628f55a4df523b3ef91a4505050565b30318111156121e35760405162461bcd60e51b815260206004820152601d60248201527f416464726573733a20696e73756666696369656e742062616c616e6365000000604482015260640161084b565b6000826001600160a01b03168260405160006040518083038185875af1925050503d8060008114612230576040519150601f19603f3d011682016040523d82523d6000602084013e612235565b606091505b5050905080610a845760405162461bcd60e51b815260206004820152603a60248201527f416464726573733a20756e61626c6520746f2073656e642076616c75652c207260448201527f6563697069656e74206d61792068617665207265766572746564000000000000606482015260840161084b565b600a80546001600160a01b038381166001600160a01b0319831681179093556040519116919082907f8be0079c531659141344cd1fd0a4f28419497f9722a3daafe3b4186f6b6457e090600090a35050565b612309848484611fe7565b612315848484846124a4565b6111a95760405162461bcd60e51b815260040161084b906131b6565b6060816123555750506040805180820190915260018152600360fc1b602082015290565b8160005b811561237f578061236981612ffe565b91506123789050600a8361321e565b9150612359565b60008167ffffffffffffffff81111561239a5761239a612b77565b6040519080825280601f01601f1916602001820160405280156123c4576020820181803683370190505b5090505b8415611fdf576123d960018361319f565b91506123e6600a86613232565b6123f1906030612fb3565b60f81b81838151811061240657612406612fcb565b60200101906001600160f81b031916908160001a905350612428600a8661321e565b94506123c8565b60006001600160e01b031982166380ac58cd60e01b148061246057506001600160e01b03198216635b5e139f60e01b145b8061081b57506301ffc9a760e01b6001600160e01b031983161461081b565b6116b98282604051806020016040528060008152506125b1565b610a848383836125e4565b60006001600160a01b0384163b156125a657604051630a85bd0160e11b81526001600160a01b0385169063150b7a02906124e8903390899088908890600401613246565b602060405180830381600087803b15801561250257600080fd5b505af1925050508015612532575060408051601f3d908101601f1916820190925261252f91810190613283565b60015b61258c573d808015612560576040519150601f19603f3d011682016040523d82523d6000602084013e612565565b606091505b5080516125845760405162461bcd60e51b815260040161084b906131b6565b805181602001fd5b6001600160e01b031916630a85bd0160e11b149050611fdf565b506001949350505050565b6125bb838361269c565b6125c860008484846124a4565b610a845760405162461bcd60e51b815260040161084b906131b6565b6001600160a01b03831661263f5761263a81600880546000838152600960205260408120829055600182018355919091527ff3f7a9fe364faab93b216da50a3214154f22a0a2b415b23a84c8169e8b636ee30155565b612662565b816001600160a01b0316836001600160a01b0316146126625761266283826127db565b6001600160a01b03821661267957610a8481612878565b826001600160a01b0316826001600160a01b031614610a8457610a848282612927565b6001600160a01b0382166126f25760405162461bcd60e51b815260206004820181905260248201527f4552433732313a206d696e7420746f20746865207a65726f2061646472657373604482015260640161084b565b6126fb81611dbe565b156127485760405162461bcd60e51b815260206004820152601c60248201527f4552433732313a20746f6b656e20616c7265616479206d696e74656400000000604482015260640161084b565b61275460008383612499565b6001600160a01b038216600090815260036020526040812080546001929061277d908490612fb3565b909155505060008181526002602052604080822080546001600160a01b0319166001600160a01b03861690811790915590518392907fddf252ad1be2c89b69c2b068fc378daa952ba7f163c4a11628f55a4df523b3ef908290a45050565b600060016127e884611734565b6127f2919061319f565b600083815260076020526040902054909150808214612845576001600160a01b03841660009081526006602090815260408083208584528252808320548484528184208190558352600790915290208190555b5060009182526007602090815260408084208490556001600160a01b039094168352600681528383209183525290812055565b60085460009061288a9060019061319f565b600083815260096020526040812054600880549394509092849081106128b2576128b2612fcb565b9060005260206000200154905080600883815481106128d3576128d3612fcb565b600091825260208083209091019290925582815260099091526040808220849055858252812055600880548061290b5761290b6132a0565b6001900381819060005260206000200160009055905550505050565b600061293283611734565b6001600160a01b039093166000908152600660209081526040808320868452825280832085905593825260079052919091209190915550565b82805461297790612f62565b90600052602060002090601f01602090048101928261299957600085556129e6565b82601f106129aa57805485556129e6565b828001600101855582156129e657600052602060002091601f016020900482015b828111156129e65782548255916001019190600101906129cb565b506129f2929150612a6a565b5090565b828054612a0290612f62565b90600052602060002090601f016020900481019282612a2457600085556129e6565b82601f10612a3d57805160ff19168380011785556129e6565b828001600101855582156129e6579182015b828111156129e6578251825591602001919060010190612a4f565b5b808211156129f25760008155600101612a6b565b6001600160e01b0319811681146114f157600080fd5b600060208284031215612aa757600080fd5b8135611b8a81612a7f565b600060208284031215612ac457600080fd5b5035919050565b60005b83811015612ae6578181015183820152602001612ace565b838111156111a95750506000910152565b60008151808452612b0f816020860160208601612acb565b601f01601f19169290920160200192915050565b602081526000611b8a6020830184612af7565b6001600160a01b03811681146114f157600080fd5b60008060408385031215612b5e57600080fd5b8235612b6981612b36565b946020939093013593505050565b634e487b7160e01b600052604160045260246000fd5b604051601f8201601f1916810167ffffffffffffffff81118282101715612bb657612bb6612b77565b604052919050565b60006020808385031215612bd157600080fd5b823567ffffffffffffffff80821115612be957600080fd5b818501915085601f830112612bfd57600080fd5b813581811115612c0f57612c0f612b77565b8060051b9150612c20848301612b8d565b8181529183018401918481019088841115612c3a57600080fd5b938501935b83851015612c5857843582529385019390850190612c3f565b98975050505050505050565b600080600060608486031215612c7957600080fd5b8335612c8481612b36565b92506020840135612c9481612b36565b929592945050506040919091013590565b600481106114f157600080fd5b600060208284031215612cc457600080fd5b8135611b8a81612ca5565b60008060008060808587031215612ce557600080fd5b5050823594602084013594506040840135936060013592509050565b600067ffffffffffffffff831115612d1b57612d1b612b77565b612d2e601f8401601f1916602001612b8d565b9050828152838383011115612d4257600080fd5b828260208301376000602084830101529392505050565b600060208284031215612d6b57600080fd5b813567ffffffffffffffff811115612d8257600080fd5b8201601f81018413612d9357600080fd5b611fdf84823560208401612d01565b600060208284031215612db457600080fd5b8135611b8a81612b36565b634e487b7160e01b600052602160045260246000fd5b6020810160048310612df757634e487b7160e01b600052602160045260246000fd5b91905290565b6020808252825182820181905260009190848201906040850190845b81811015612e3557835183529284019291840191600101612e19565b50909695505050505050565b60008060408385031215612e5457600080fd5b8235612e5f81612b36565b915060208301358015158114612e7457600080fd5b809150509250929050565b60008060008060808587031215612e9557600080fd5b8435612ea081612b36565b93506020850135612eb081612b36565b925060408501359150606085013567ffffffffffffffff811115612ed357600080fd5b8501601f81018713612ee457600080fd5b612ef387823560208401612d01565b91505092959194509250565b60008060408385031215612f1257600080fd5b8235612f1d81612b36565b91506020830135612e7481612b36565b6020808252818101527f4f776e61626c653a2063616c6c6572206973206e6f7420746865206f776e6572604082015260600190565b600181811c90821680612f7657607f821691505b60208210811415612f9757634e487b7160e01b600052602260045260246000fd5b50919050565b634e487b7160e01b600052601160045260246000fd5b60008219821115612fc657612fc6612f9d565b500190565b634e487b7160e01b600052603260045260246000fd5b600060208284031215612ff357600080fd5b8151611b8a81612b36565b600060001982141561301257613012612f9d565b5060010190565b60208082526031908201527f4552433732313a207472616e736665722063616c6c6572206973206e6f74206f6040820152701ddb995c881b9bdc88185c1c1c9bdd9959607a1b606082015260800190565b60006020828403121561307c57600080fd5b8151611b8a81612ca5565b828152600060206040818401526000845481600182811c9150808316806130af57607f831692505b8583108114156130cd57634e487b7160e01b85526022600452602485fd5b60408801839052606088018180156130ec57600181146130fd57613128565b60ff19861682528782019650613128565b60008b81526020902060005b8681101561312257815484820152908501908901613109565b83019750505b50949a9950505050505050505050565b60006020828403121561314a57600080fd5b5051919050565b60008351613163818460208801612acb565b835190830190613177818360208801612acb565b01949350505050565b600081600019048311821515161561319a5761319a612f9d565b500290565b6000828210156131b1576131b1612f9d565b500390565b60208082526032908201527f4552433732313a207472616e7366657220746f206e6f6e20455243373231526560408201527131b2b4bb32b91034b6b83632b6b2b73a32b960711b606082015260800190565b634e487b7160e01b600052601260045260246000fd5b60008261322d5761322d613208565b500490565b60008261324157613241613208565b500690565b6001600160a01b038581168252841660208201526040810183905260806060820181905260009061327990830184612af7565b9695505050505050565b60006020828403121561329557600080fd5b8151611b8a81612a7f565b634e487b7160e01b600052603160045260246000fdfea264697066735822122084e2758fb2be22bcf63347836af2a4d0b323555cf98d17bd18d718026efd21ab64736f6c63430008090033",
  "immutableReferences": {},
  "source": "// SPDX-License-Identifier: MIT\npragma solidity >=0.8.0 <0.9.0;\n\nimport \"@openzeppelin/contracts/token/ERC721/ERC721.sol\";\nimport \"@openzeppelin/contracts/utils/Strings.sol\";\nimport \"@openzeppelin/contracts/utils/math/Math.sol\";\nimport \"@openzeppelin/contracts/access/Ownable.sol\";\nimport \"@openzeppelin/contracts/utils/Counters.sol\";\nimport \"@openzeppelin/contracts/token/ERC721/extensions/ERC721Enumerable.sol\";\nimport \"@openzeppelin/contracts/utils/Address.sol\";\nimport \"./Flowtys.sol\";\n\n/*\n@@@@@@@@@@@@@@@@@@@@@@@@@@@@@@@@@@@@@@@@@@@@@@@@@@@@@@@@@@@@@@@@@@@@@@@@@@@@@@@@@@@@@@@@@@@@@@@@@@@@@@@@@@@@@@@@@@@@@@@@@@@@@@@@@@@@@@@@@@@@@@@@@@@@@@@@@@@@@@@@\n@@@@@@@@@@@@@@@@@@@@@@@@@@@@@@@@@@@@@@@@@@@@@@@@@@@@@@@@@@@@@@@@@@@@@@@@@@@@@@@@@@@@@@@@@@@@@@@@@@@@@@@@@@@@@@@@@@@@@@@@@@@@@@@@@@@@@@@@@@@@@@@@@@@@@@@@@@@@@@@@\n@@@@@@@@@@@@@@@@@@@@@@@@@@@@@@@@@@@@@@@@@@@@@@@@@@@@@@@@@@@@@@@@@@@@@@@@@@@@@@        @@@@@@@@@@@@@@@@@@@@@@@@@@@@@@@@@@@@@@@@@@@@@@@@@@@@@@@@@@@@@@@@@@@@@@@@@@\n@@@@@@@@@@@@@@@@@@@@@@@@@@@@@@@@@@@@@@@@.         @@@@@@@@@@@@@@@@@@@@@                    @@@@@@@@@@@@@@@@@@@@@@@@@@@@@@@@@@@@@@@         ,@@@@@@@@@@@@@@@@@@@@\n@@@@@@@@@@@@@@             @@@@@@@@@@@              /@@@@@@@@@@@@@@@                         @@@@@@@@@@@          @@@@@@@@@@@@@              @@@@@@@@@@@@@@@@@@@\n@@@@@@@@@@@                     @@@@@                 @@@@@@@@@@@@@@             @@@@@       @@@@@@@@@@             @@@@@@@@@@        @   @  @@@@@@@@@@@@@@@@@@@\n@@@@@@@              @@           @@                  @@@@@@@@@@@@@@@  @          @@@        @@@@@@@@@@   @   @       @@@@@@@     @   @   @@@@@@@@@@@@@@@@@@@@@@\n@@@@@@        @@@    @@            @@                 @@@@@         @@@@@@*                *@@@@@@@@@@@@@@@@  @         @@       @@@@@@@@@@@@@@@@@@@@@@@@@@@@@@@\n@@@@@        @@      @@@@          #@@              *@@@               (@@@              @@@@     @@@@     @@@@@@@@              @@@@@@                       @@\n@@@@@         @@@      @@           @@@            @@@                   @@@           @@@@       @@@       @@@@@@            ,@@@@@@@            *@@@   @    @@\n@@@@@                               @@@@&@   @@   @@@        @@@@@@      @@@@          @@@        @@        @@@@@           @@@@@@@@@@                   @@@@@@@\n@@@@@@                              @@@@@@   @@@@@@@        @@@@        @@@@@         &@@@                 @@@@@            @@@@@@@@@@@@@@@@@@@@@@@         @@@@\n@@@@@@                              @@@@@@@@@@@@@@@                  @@@@@@@@        @@@@@                @@@@@              @@@@@@@       @@@@@@@@@         @@@\n@@@@@@                              @@@@@@@@@@@@@@                    *@@@@@@       @@@@@@                @@@@@              *@@@@                            @@\n@@@@@         @@         @@@@        @@@@@@@@@@@@@@          @@       @@@@@@@      .@@@@@       @@        .@@@@               @@@                             @@\n@@@@@        @@@@       @@@@@         @@@@@@@@@@@@@@%       .@@@      @@@@@@@@     @@@@@       @@@         @@@@               @@@                            @@@\n@@@@@        @@@@        @@@@         @@@@@@@@@@@@@@@       @@@@        @@@@@@@@@@@@@@@@       @@         @@@@@              @@@@    @@    @                @@@@\n@@@@@@       @@@@        @@@@@       @@@@@@@@@@@@@@@     @@@@@@@@        @@@@@@@@@@@@@@@      @@@        @@@@@@@@          @@@@@@@   @    @@@    @@&      @@@@@@\n@@@@@@@@@@@@@@@@@@@%   @@@@@@@@@@@@@@@@@@@@@@@@@@@@@     @@@@@@@@@/      @@@@@@@@@@@@@@@@@% @@@@@@@@@@@@@@@@@@@@@@@@@ (@@@@@@@@@@@@@@@   @@@@@@@@@@      /@@@@@@\n@@@@@@@@@@@@@@@@@@@@@@@@@@@@@@@@@@@@@@@@@@@@@@@@@@@@@@,@@@@@@@@@@@@@@   @@@@@@@@@@@@@@@@@@@@@@@@@@@@@@@@@@@@@@@@@@@@@@@@@@@@@@@@@@@@@@@@@@@@@@@@@@@@@@@@@@@@@@@@\n@@@@@@@@@@@@@@@@@@@@@@@@@@@@@@@@@@@@@@@@@@@@@@@@@@@@@@@@@@@@@@@@@@@@@@@@@@@@@@@@@@@@@@@@@@@@@@@@@@@@@@@@@@@@@@@@@@@@@@@@@@@@@@@@@@@@@@@@@@@@@@@@@@@@@@@@@@@@@@@@\n@@@@@@@@@@@@@@@@@@@@@@@@@@@@@@@@@@@@@@@@@@@@@@@@@@@@@@@@@@@@@@@@@@@@@@@@@@@@@@@@@@@@@@@@@@@@@@@@@@@@@@@@@@@@@@@@@@@@@@@@@@@@@@@@@@@@@@@@@@@@@@@@@@@@@@@@@@@@@@@@\n*/\ncontract Morphys is ERC721, ERC721Enumerable, Ownable {\n    using Math for uint256;\n    using Strings for string;\n    using Strings for uint256;\n\n    uint256 public constant MAX_MORPHYS = 10000;\n    uint256 public maxPerMint = 100;\n    bool public mintingIsActive = false;\n    bool public morphingIsActive = false;\n\n    // current seasonal collection baseURI and is used for any new morphing / minting\n    // Morphing (allowed only to a current seasonal collection): e.g. Morphy Halloween => Morphy Christmas\n    // Minting (only once): Flowty => Morphy current collection\n    string public currentSeasonalCollectionURI;\n\n    // Maximum price per minting one Morphy for a Flowty owner;\n    uint256 public mintingPriceTier1 = 0.012 ether;\n    uint256 public mintingPriceTier2 = 0.018 ether;\n    uint256 public mintingPriceTier3 = 0.024 ether;\n    uint256 public mintingMaxPrice = 0.03 ether;\n\n    // Last minted Flowty at 0xdcb21cd4f3a7d5ab09df28e9aef697c0e895507a1fc7b97c533962845fdfe92d\n    uint256 public lastFlowtyMintedBlock = 13263728;\n    // Number of blocks between pricing steps. Around 1 Week assuming 15s interval between blocks\n    uint256 public agingPricingThreshold = 40320;\n    // Price per morphing (changing the look of Morhpy for a new season).\n    // Idea that it will be free if you have aged Flowty in your wallet (same tokenId as Morphy).\n    // The exact age stage is set for each season starting with Scratched\n    uint256 public morphingPrice = 0.01 ether;\n    // Starting with Scratched\n    Flowtys.Age public morhpingAgeThreeshold = Flowtys.Age.Scratched;\n\n    // mapping between original Flowty tokenId => Morphy tokenId, to allow minting of unminted\n    mapping(uint256 => bool) private _morphysMinted;\n    // Mapping between tokenId => seasonal collectiong baseURI\n    mapping(uint256 => string) private _morphysRegistry;\n\n    address public flowtysContract = 0x52607cb9c342821ea41ad265B9Bb6a23BEa49468;\n\n    event MorphyMinted(uint256 tokenId);\n    event MorphyUpdated(uint256 tokenId, string newBaseURI);\n\n    constructor(string memory baseURI) ERC721(\"Morphys\", \"MORPHY\") {\n        currentSeasonalCollectionURI = baseURI;\n    }\n    /*\n    * Withdraw funds\n    */\n    function withdraw() public onlyOwner {\n        require(address(this).balance > 0, \"Insufficient balance\");\n\n        uint256 balance = address(this).balance;\n        Address.sendValue(payable(msg.sender), balance);\n    }\n\n    /*\n    * The ground cost of Morphying, unless free because a Flowty has required age stage\n    */\n    function setMorphingCost(uint256 newCost) public onlyOwner {\n        morphingPrice = newCost;\n    }\n\n    /*\n    * Set the minimum required age stage of a Flowty to morph for free\n    */\n    function setMorphingFreeStage(Flowtys.Age age) public onlyOwner {\n        morhpingAgeThreeshold = age;\n    }\n\n    /*\n    * Minting tiers, starts with Free for holders\n    */\n    function setMintingMaxCost(uint256 newCostTier1, uint256 newCostTier2, uint256 newCostTier3, uint256 newCostMax) public onlyOwner {\n        mintingPriceTier1 = newCostTier1;\n        mintingPriceTier2 = newCostTier2;\n        mintingPriceTier3 = newCostTier3;\n        mintingMaxPrice = newCostMax;\n    }\n\n    function setMintMax(uint256 newMax) public onlyOwner {\n        maxPerMint = newMax;\n    }\n    //---------------------------------------------------------------------------------\n    /**\n    * Current on-going collection that is avaiable to morph or use as base for minting\n    */\n    function setCurrentCollectionBaseURI(string memory newuri) public onlyOwner {\n        currentSeasonalCollectionURI = newuri;\n    }\n\n    /*\n    * Pause morphing if active, make active if paused\n    */\n    function flipMorphingState() public onlyOwner {\n        morphingIsActive = !morphingIsActive;\n    }\n    /*\n    * Pause minting if active, make active if paused\n    */\n    function flipMintingState() public onlyOwner {\n        mintingIsActive = !mintingIsActive;\n    }\n\n    /**\n     * Reserve Morphyd from the current Flowtys reserve\n     */\n    function reserveMorphys() public onlyOwner {        \n        Flowtys flowtys = Flowtys(flowtysContract);\n        uint balance = flowtys.balanceOf(msg.sender);\n        for(uint i = 0; i < balance; i++) {\n            createMorphy(msg.sender, flowtys.tokenOfOwnerByIndex(msg.sender, i));\n        }\n    }\n\n    /**\n    * Calculate minting price based on the age of an original Flowty in the wallet\n    * Pricing (per Morphy): \n    * 1st Week after initial minting => Free to Mint Morphy\n    * 2nd Week after initial minting => mintingPriceTier1\n    * 3rd Week after initial minting => mintingPriceTier2\n    * 4th Week after initial minting => mintingPriceTier3\n    * 5th Week and beyond after initial minting => mintingMaxPrice\n    */\n    function mintPrice(uint256 tokenId) public view returns (uint256) {\n        Flowtys flowtys = Flowtys(flowtysContract);\n        uint256 startingBlock = flowtys.getAgeStaringBlock(tokenId);\n        if (startingBlock <= (lastFlowtyMintedBlock + agingPricingThreshold)) {\n          return 0;\n        } else if (startingBlock <= (lastFlowtyMintedBlock + agingPricingThreshold * 2)) {\n          return mintingPriceTier1;\n        } else if (startingBlock <= (lastFlowtyMintedBlock + agingPricingThreshold * 3)) {\n          return mintingPriceTier2;\n        } else if (startingBlock <= (lastFlowtyMintedBlock + agingPricingThreshold * 4)) {\n          return mintingPriceTier3;\n        }\n        return mintingMaxPrice;\n    }\n\n    function mintPriceForAll(uint256[] memory tokenIds) public view returns (uint256[] memory) {\n        require(tokenIds.length <= MAX_MORPHYS, \"Can not calculate price for count exceeding MAX_MORPHYS\");\n        uint256[] memory pricing = new uint256[](tokenIds.length); \n        for(uint i = 0; i < tokenIds.length; i++) {\n            pricing[i] = mintPrice(tokenIds[i]);\n        }\n        return pricing;\n    }\n\n    /**\n    * Calculates the total price to mint given set of Morphys (returns wei)\n    */\n    function getTotalPrice(uint256[] memory tokenIds) public view returns (uint256) {\n        uint256 totalPrice = 0;\n        for(uint i = 0; i < tokenIds.length; i++) {\n            totalPrice = totalPrice + mintPrice(tokenIds[i]);\n        }\n        return totalPrice;\n    }\n\n    /**\n    * Mints Morphy (only allowed if you holding Flowty and corresponding Morphy has not been minted)\n    */\n    function mintMorphy(uint256[] memory tokenIds) public payable {\n        require(tokenIds.length <= maxPerMint, \"Minting too much at once is not supported\");\n        require(mintingIsActive, \"Minting must be active to mint Morphy\");\n        require((totalSupply() + tokenIds.length) <= MAX_MORPHYS, \"Mint would exceed max supply of Morhpys\");\n        Flowtys flowtys = Flowtys(flowtysContract);\n        for(uint i = 0; i < tokenIds.length; i++) {\n            // Allow minting if we are the owner of original Flowty, skip otherwise\n            if (flowtys.ownerOf(tokenIds[i]) != msg.sender) {\n                require(false, \"Attempt to mint Morphy for non owned Flowty\");\n            }\n        }\n        require(getTotalPrice(tokenIds) == msg.value, \"Ether value sent is not correct\");\n        \n        for(uint i = 0; i < tokenIds.length; i++) {\n            createMorphy(msg.sender, tokenIds[i]);\n        }\n    }\n\n    /**\n    * Morphing existing Morphys.\n    * Changing current baseURI of a token to a new one, that is current Season topic.\n    */\n    function morphSeason(uint256[] memory tokenIds) public payable {\n        require(morphingIsActive, \"Morphing must be active to change season\");\n        Flowtys flowtys = Flowtys(flowtysContract);\n        uint256 totalPrice = 0;\n        for(uint i = 0; i < tokenIds.length; i++) {\n            // Allow morphing for owner only\n            if (ownerOf(tokenIds[i]) != msg.sender || !_exists(tokenIds[i])) {\n                require(false, \"Trying to morph non existing/not owned Morphy\");\n            }\n            // If you own a Flowty that has changed aging to minimum require => Morphing is free\n            if (!(flowtys.ownerOf(tokenIds[i]) == msg.sender && flowtys.getAge(tokenIds[i]) >= morhpingAgeThreeshold)) {\n                totalPrice = totalPrice + morphingPrice;\n            }\n        }\n        require(totalPrice == msg.value, \"Ether value sent is not correct\");\n\n        for(uint i = 0; i < tokenIds.length; i++) {\n            _morphysRegistry[tokenIds[i]] = currentSeasonalCollectionURI;\n            emit MorphyUpdated(tokenIds[i], currentSeasonalCollectionURI);\n        }\n    }\n\n    /// Internal\n    function createMorphy(address mintAddress, uint256 tokenId) private {\n      if (tokenId < MAX_MORPHYS && !_exists(tokenId) && _morphysMinted[tokenId] == false) {\n          _safeMint(mintAddress, tokenId);\n          _morphysMinted[tokenId] = true;\n          _morphysRegistry[tokenId] = currentSeasonalCollectionURI;\n          // fire event in logs\n          emit MorphyMinted(tokenId);\n      }\n    }\n\n    /// ERC721 related\n    /**\n     * @dev See {ERC721Metadata-tokenURI}.\n     */\n    function tokenURI(uint256 tokenId) public view override returns (string memory) {\n        require(_exists(tokenId), \"ERC721Metadata: URI query for nonexistent token\");\n\n        string memory baseURI = _morphysRegistry[tokenId];\n        return bytes(baseURI).length > 0 ? string(abi.encodePacked(baseURI, tokenId.toString())) : \"\";\n    }\n\n    function _baseURI() internal view override returns (string memory) {\n        return currentSeasonalCollectionURI;\n    }\n\n    function _beforeTokenTransfer(address from, address to, uint256 tokenId) internal override(ERC721, ERC721Enumerable) {\n        super._beforeTokenTransfer(from, to, tokenId);\n    }\n\n    function supportsInterface(bytes4 interfaceId) public view override(ERC721, ERC721Enumerable) returns (bool) {\n        return super.supportsInterface(interfaceId);\n    }\n}\n",
  "sourcePath": "/Users/dmytrokabyshev/Development/Flowtys/Morphys/contracts/Morphys.sol",
  "compiler": {
    "name": "solc",
    "version": "0.8.9+commit.e5eed63a.Emscripten.clang"
  },
  "schemaVersion": "3.4.3",
  "updatedAt": "2021-10-22T06:56:51.530Z",
  "devdoc": {
    "kind": "dev",
    "methods": {
      "approve(address,uint256)": {
        "details": "See {IERC721-approve}."
      },
      "balanceOf(address)": {
        "details": "See {IERC721-balanceOf}."
      },
      "getApproved(uint256)": {
        "details": "See {IERC721-getApproved}."
      },
      "isApprovedForAll(address,address)": {
        "details": "See {IERC721-isApprovedForAll}."
      },
      "name()": {
        "details": "See {IERC721Metadata-name}."
      },
      "owner()": {
        "details": "Returns the address of the current owner."
      },
      "ownerOf(uint256)": {
        "details": "See {IERC721-ownerOf}."
      },
      "renounceOwnership()": {
        "details": "Leaves the contract without owner. It will not be possible to call `onlyOwner` functions anymore. Can only be called by the current owner. NOTE: Renouncing ownership will leave the contract without an owner, thereby removing any functionality that is only available to the owner."
      },
      "safeTransferFrom(address,address,uint256)": {
        "details": "See {IERC721-safeTransferFrom}."
      },
      "safeTransferFrom(address,address,uint256,bytes)": {
        "details": "See {IERC721-safeTransferFrom}."
      },
      "setApprovalForAll(address,bool)": {
        "details": "See {IERC721-setApprovalForAll}."
      },
      "symbol()": {
        "details": "See {IERC721Metadata-symbol}."
      },
      "tokenByIndex(uint256)": {
        "details": "See {IERC721Enumerable-tokenByIndex}."
      },
      "tokenOfOwnerByIndex(address,uint256)": {
        "details": "See {IERC721Enumerable-tokenOfOwnerByIndex}."
      },
      "tokenURI(uint256)": {
        "details": "See {ERC721Metadata-tokenURI}."
      },
      "totalSupply()": {
        "details": "See {IERC721Enumerable-totalSupply}."
      },
      "transferFrom(address,address,uint256)": {
        "details": "See {IERC721-transferFrom}."
      },
      "transferOwnership(address)": {
        "details": "Transfers ownership of the contract to a new account (`newOwner`). Can only be called by the current owner."
      }
    },
    "version": 1
  },
  "userdoc": {
    "kind": "user",
    "methods": {
      "getTotalPrice(uint256[])": {
        "notice": "Calculates the total price to mint given set of Morphys (returns wei)"
      },
      "mintMorphy(uint256[])": {
        "notice": "Mints Morphy (only allowed if you holding Flowty and corresponding Morphy has not been minted)"
      },
      "mintPrice(uint256)": {
        "notice": "Calculate minting price based on the age of an original Flowty in the wallet Pricing (per Morphy):  1st Week after initial minting => Free to Mint Morphy 2nd Week after initial minting => mintingPriceTier1 3rd Week after initial minting => mintingPriceTier2 4th Week after initial minting => mintingPriceTier3 5th Week and beyond after initial minting => mintingMaxPrice"
      },
      "morphSeason(uint256[])": {
        "notice": "Morphing existing Morphys. Changing current baseURI of a token to a new one, that is current Season topic."
      },
      "reserveMorphys()": {
        "notice": "Reserve Morphyd from the current Flowtys reserve"
      },
      "setCurrentCollectionBaseURI(string)": {
        "notice": "Current on-going collection that is avaiable to morph or use as base for minting"
      }
    },
    "version": 1
  }
}